:020000040800F2
:1000000058130020390200083B1B00083D1A000865
:10001000391B0008D5070008392C00080000000033
:10002000000000000000000000000000832A00081B
:10003000D7070008000000003D1B0008852A0008C3
:10004000530200085302000853020008530200083C
:10005000530200085302000853020008530200082C
:10006000530200085302000853020008530200081C
:10007000530200085302000853020008530200080C
:1000800053020008530200085302000853020008FC
:1000900053020008530200085302000853020008EC
:1000A00053020008530200085302000853020008DC
:1000B00053020008530200085302000853020008CC
:1000C00053020008530200085302000853020008BC
:1000D00053020008530200085302000853020008AC
:1000E000530200085302000853020008530200089C
:1000F000530200085302000853020008530200088C
:10010000530200085302000853020008530200087B
:10011000530200085302000853020008530200086B
:10012000530200085302000853020008530200085B
:10013000530200085302000853020008530200084B
:10014000530200085302000853020008530200083B
:10015000530200085302000853020008530200082B
:10016000530200085302000853020008530200081B
:100170005302000853020008530200080000000068
:10018000530200085302000800F002F800F044F89F
:100190000AA090E8000C82448344AAF10107DA45E2
:1001A00001D100F039F8AFF2090EBAE80F0013F0F0
:1001B000010F18BFFB1A43F001031847B02D0000D0
:1001C000D02D0000103A24BF78C878C1FAD8520761
:1001D00024BF30C830C144BF04680C6070470000C1
:1001E0000023002400250026103A28BF78C1FBD840
:1001F000520728BF30C148BF0B607047642900F028
:100200001D81732900F01E82002070471FB502F087
:1002100091FD1FBD10B510BD00F046FA1146FFF765
:10022000F5FF02F025FD00F064FA03B4FFF7F2FFDA
:1002300003BC02F012FD000009488047094800474E
:10024000FEE7FEE7FEE7FEE7FEE7FEE7FEE7FEE786
:10025000FEE7FEE704480549054A064B70470000E3
:100260001D2B0008890100085801002058130020A8
:100270005803002058030020704753EA020C00F096
:1002800069802DE9F04B4FF00006002B1FBFB3FA39
:1002900083F503FA05F424FA05F65E4012BF16430F
:1002A000B2FA82F502FA05F4C5F120051EBF22FA62
:1002B00005FC44EA0C04203556EA044C4FEA144489
:1002C00018BF641C4FF000084FF00009904271EB1A
:1002D000030C39D3002919BFB1FA81F701FA07F6E7
:1002E000B0FA80F700FA07F6C7F120071EBF20FA20
:1002F00007FC46EA0C062037B6FBF4FCA7EB050723
:10030000103F07F01F0BCBF120060CFA0BFB2CFA69
:1003100006F644BFB3460026202FA4BF5E464FF02A
:10032000000B5BEA060C08BF4FF0010B19EB0B0941
:10033000ABFB027C48EB0608C01B06FB02CC0BFBA8
:1003400003CC71EB0C01C1E70B460246414648461F
:10035000BDE8F08B13B54FF000004FF00001AFF394
:100360000080BDE81C4070470FB4044910B503AAD3
:10037000029800F06BF910BC5DF814FB040000203B
:100380002DE9F0410E460446002020622046E16837
:10039000884730B3252805D0D4E901219047206A49
:1003A000401CF2E7E168204600278847050018D086
:1003B000A5F14100192802D820354FF400673246D4
:1003C000294620462760FFF719FF40B1012804D0D5
:1003D000F61D26F007060836D8E7361DD6E728466C
:1003E000DAE7206ABDE8F08170B50C460546012ABF
:1003F00005D02878800600D5EA69002302E00123B1
:1004000005E05B1C934202D2E05C0028F9D1A869A8
:10041000E618C01AA861286A184428622846AFF373
:10042000008004E0D5E9012114F8010B9047B442A3
:10043000F8D32846AFF3008070BD00002DE9F041ED
:100440000646002410687529314616A510D0AFF372
:100450000080002802DA404213A507E031688A07CD
:1004600001D512A502E0490704D511A5012401E038
:10047000AFF3008000210A2206F1240709E0B0FB57
:10048000F2FCB0FBF2F302FB1C003030785418464B
:10049000491C0028F3D123462A463046BDE8F041E6
:1004A00000F065B8000000002D0000002B000000E7
:1004B0002000000010B5203AC0F00B80B1E81850C1
:1004C000203AA0E81850B1E81850A0E81850BFF43E
:1004D000F5AF5FEA027C24BFB1E81850A0E81850DD
:1004E00044BF18C918C0BDE810405FEA827C24BF31
:1004F00051F8043B40F8043B08BF7047D20728BFBF
:1005000031F8023B48BF11F8012B28BF20F8023B0D
:1005100048BF00F8012B70474FF0000200B51346AA
:1005200094469646203922BFA0E80C50A0E80C5013
:10053000B1F12001BFF4F7AF090728BFA0E80C50C4
:1005400048BF0CC05DF804EB890028BF40F8042BBD
:1005500008BF704748BF20F8022B11F0804F18BF2A
:1005600000F8012B704770477047704770472DE9BE
:10057000F0470D4699469246044600F1240801686A
:10058000880604D5E06921F01001216000E0012017
:10059000A84201DD471B00E00027A1697A1902EBA0
:1005A0000900081AA0612078C00602D42046AFF3E3
:1005B0000080002608E0D4E901211AF806009047DF
:1005C000206A401C761C20624E45F4DB2078C00671
:1005D0000AD52046AFF3008006E0D4E9012130209F
:1005E0009047206A401C2062381EA7F10107F4DC06
:1005F00007E0D4E9012118F805009047206A401C63
:100600002062281EA5F10105F3DC2046AFF300802F
:100610002078000602D50220BDE8F0870120FBE724
:1006200010B5436913B1AFF3008001E0FFF7DCFEC2
:10063000012010BD127800F124010A7000224A70D6
:100640000122EDE711684FF0FF32E9E7074B70B583
:100650000D467B4400F011F80446284600F020F8CF
:1006600010B14FF0FF3070BD204670BD072600006E
:1006700001694A1C02610878704700B58FB0CDE966
:1006800001310021059105497944CDE90310114656
:100690006846FFF775FE0FB000BD0000E5FFFFFFE5
:1006A000007B00F080007047754600F02BF8AE46E6
:1006B00005006946534620F00700854618B020B56E
:1006C000FFF7C8FDBDE820404FF000064FF00007DF
:1006D0004FF000084FF0000B21F00701AC46ACE8EA
:1006E000C009ACE8C009ACE8C009ACE8C0098D4657
:1006F000704710B50446AFF300802046BDE81040B7
:10070000FFF793BD00487047F800002010B50124A2
:100710000821034800F090F900B10024204610BDE4
:10072000000C02400146014800F078BE2000002085
:1007300010B5044800F084FE042801D0012010BD4B
:10074000002010BD2000002010B500F015F8012891
:1007500001D0012010BD074800F088FE040006D13A
:100760004FF40061034800F09FFC00B101242046D3
:1007700010BD00002000002008B501208DF8000009
:10078000FFF7C4FF10B900208DF800009DF80000AD
:1007900008BD000038B50024009313460A46014600
:1007A000034800F007FF00B10124204638BD0000D7
:1007B0002000002038B50024009313460A46014665
:1007C000034800F0E7FF00B10124204638BD0000D7
:1007D00020000020FEE7704772B6FEE7002200F01E
:1007E00001B8000030B50E4B054601205C7A002CA4
:1007F00014D1587A1C54587A03EB800045605D7A16
:1008000003F108002A54587A421C5A72303008709A
:100810003A2048702F208870CC70002030BD000036
:10082000EC00002070B5044600F00CF90546601C91
:1008300002D004480078044400F004F9401BA042B0
:10084000FAD370BD100000202DE9F84FDFF8BCA1ED
:100850000022012503264FF00F090AF1040BAAF12B
:10086000040E00BF0B6805FA02F42340A34270D1C6
:100870000F7907F00307012F01D0022F16D18768E7
:100880004FEA420806FA08FC27EA0C07D1F80CC028
:100890000CFA08FC4CEA070CC0F808C04768A743EC
:1008A0000C79C4F3001494403C4344600C79E44355
:1008B000A4070AD0C4684FEA420C06FA0CF7BC43FE
:1008C0008F6807FA0CF72743C7600C7904F003041C
:1008D000022C12D1D40800EB840CDCF8204057071E
:1008E000FF0E09FA07F824EA0804D1F8108008FA84
:1008F00007F848EA0408CCF8208004684FEA420C64
:1009000006FA0CF7BC430F7907F0030707FA0CF758
:10091000274307604C6814F4403F70D03C4C276874
:1009200047F480472760246822F0030704F48044DA
:100930000094384C07EB040CDCF8084897074FEAA2
:10094000177809FA08F7BC43334FB84202D10027A1
:1009500024E054E0314FB84201D101271EE0304F6E
:10096000B84201D1022719E02E4FB84201D1032726
:1009700014E02D4FB84201D104270FE02B4FB842AD
:1009800001D105270AE02A4FB84201D1062705E028
:10099000284FB84201D1072700E0082707FA08F7D7
:1009A0002743CCF80878DAF800405746D1F804C05D
:1009B0009C435FEACC2C00D51C433C60DBF8004034
:1009C0005F46D1F804C09C435FEA8C2C00D51C43E1
:1009D0003C60DEF800407746D1F804C09C435FEAF3
:1009E0008C3C00D51C433C60084F083F3C68D1F864
:1009F00004C09C435FEACC3C00D51C433C60521CC5
:100A0000102AFFF42FAFBDE8F88F0000083C01402A
:100A1000443802400030014000000240000402401F
:100A200000080240000C0240001002400014024086
:100A300000180240001C02400069084000D001205C
:100A400070470000014880687047000010000020D7
:100A500002488168027811448160704710000020CC
:100A60000B4810B5016841F400710160016841F460
:100A700080610160016841F480710160032000F031
:100A800061F80F2000F006F800F024F8002010BDF7
:100A9000003C024070B50D4D04464FF47A71287841
:100AA000B1FBF0F00A490968B1FBF0F000F04AFF31
:100AB00048B9102C07D200222146501E00F022F81F
:100AC00000206C6070BD012070BD0000100000208F
:100AD0001C0000200A4808B5016841F4804101600B
:100AE000006800F4804000900548001F016841F054
:100AF00080510160006800F08050009008BD000047
:100B000044380240F0B40E4B1B680C46C3F302237A
:100B1000C3F10705042D00D90425191D072901D2A9
:100B2000002300E0DB1E012606FA05F1491E2140E4
:100B300099409E40761E16403143F0BC02F07DB8CD
:100B40000CED00E0064900F0070208684FF6FF03CD
:100B5000184040EA0220034A104308607047000032
:100B60000CED00E00000FA052DE9F0470E46050007
:100B700065D0DFF81481D8F80000F7B200F0070064
:100B8000B04207D288F80070D8F8000000F00700E3
:100B9000B04254D128683D4C810712D5400703D597
:100BA000206840F4E05020602878000703D52068D2
:100BB00040F4604020602068A96820F0F0000843FD
:100BC00020602878C0072DD030496868083901288E
:100BD00012D0022813D0032811D0096889070029F0
:100BE0002DDA216821F0030101432160FFF72AFF7C
:100BF000814641F2883A0EE009688903EFE7096807
:100C00008901ECE7FFF71EFFA0EB0901514502D96E
:100C10000320BDE8F0872068696800F00C00B0EBA5
:100C2000810FEFD1D8F80010404601F00701B14222
:100C300007D90770006800F00700B04201D001201A
:100C4000E7E72878400705D52068E96820F4E050F8
:100C5000084320602878000706D52068296920F419
:100C6000604040EAC100206000F038F82168084A7E
:100C7000C1F30311515CC84006490860064800688A
:100C8000FFF708FF0020C4E7003C0240083802409C
:100C9000542F00081C0000201400002004480549BF
:100CA00000680968044AC1F38221515CC84070475A
:100CB0001C00002008380240642F00080448054941
:100CC00000680968044AC1F34231515CC84070476A
:100CD0001C00002008380240642F0008154810B599
:100CE000006810F00C02144813D04110042A0FD0F1
:100CF000082A0ED10F4C241F2268236802F03F02FD
:100D00005B0207D52068C0F38810A0FB010106E054
:100D1000084610BD2168C1F38811A1FB0001002322
:100D2000FFF7ABFA2168C1F30141491C4900B0FB50
:100D3000F1F010BD083802400024F4002DE9F84F0E
:100D400004006ED02078DFF84C93C007A9F10405A9
:100D50004AD009F104000168C1F38101012908D0DA
:100D60000068C0F3810002280AD1D9F800004002CF
:100D700006D52868800337D560680028E1D033E0C5
:100D80006068B0F5803F10D0B0F5A02F286810D073
:100D900020F480302860286820F480202860606873
:100DA000A8B1FFF74FFE06460DE0286840F48030FA
:100DB000F4E740F480202860F7E700BFFFF742FE29
:100DC000801B642873D828688003F7D50CE0FFF7F0
:100DD00039FE064605E000BFFFF734FE801B64289D
:100DE000F0D828688003F7D42078DFF8AC82800739
:100DF0004FF0000A3ED5A748001D016811F00C0F06
:100E000008D00068C0F3810002280BD1D9F8000097
:100E1000400207D42868800716D5E068012800D171
:100E200012E033E1E068B8B10120C8F80000FFF734
:100E300009FE064605E000BFFFF704FE801B0228FE
:100E4000C0D828688007F7D52868216920F0F80005
:100E500040EAC10028600DE0C8F800A0FFF7F2FDED
:100E6000064604E0FFF7EEFD801B02281FD8286825
:100E70008007F7D42078000722D5864F874861691C
:100E8000703771B101210160FFF7DCFD064604E017
:100E9000FFF7D8FD801B022809D838688007F7D5EE
:100EA0000EE0C0F800A0FFF7CDFD064605E082E0A9
:100EB000FFF7C8FD801B02287DD838688007F7D46B
:100EC0002078400768D5DFF8CCB100270BF13C0B48
:100ED000DBF80000C0000BD4DBF8001041F08051BB
:100EE000CBF80010DBF80000012700F080500090E4
:100EF0006B4E3068C00510D4306840F480703060AC
:100F0000FFF7A0FD009005E0FFF79CFD0099401A57
:100F1000022850D83068C005F6D55E4EA0686C3601
:100F200001280FD00528306810D020F00100306073
:100F3000306820F004003060A068B8B1FFF782FD8F
:100F400000900FE0306840F00100F4E740F004004A
:100F50003060F7E7FFF776FD0099411A41F28830DB
:100F6000814266D830688007F4D50EE0FFF76AFD4D
:100F7000009007E0FFF766FD0099411A41F28830C2
:100F8000814256D830688007F4D42FB1DBF80010C6
:100F900021F08051CBF80010A069C8B33D49091D6C
:100FA0000968C1F3810102294AD00228504607D0BE
:100FB000C8F8600000E03CE0FFF744FD04463BE079
:100FC0004746C8F86000FFF73DFD064605E000BF54
:100FD000FFF738FD801B02282BD828688001F7D442
:100FE000D4E907010843A16A2E4A490802EB0141EE
:100FF000626A41EA8211084394F82C1040EA0161C8
:10100000C9F8001001203866FFF71CFD044606E011
:101010003EE000BFFFF716FD001B022809D8286834
:101020008001F7D534E000BFFFF70CFD001B02285C
:1010300002D90320BDE8F88F28688001F4D427E0A6
:101040000128F7D0D9F80000E26900F4800191424C
:101050001CD1226A00F03F01914217D147F6C071BE
:10106000626A0140B1EB821F10D1A26A4FF0FF33D8
:1010700000F4403103EB5202B1EB024F06D194F879
:101080002C1000F07060B0EB016F01D00120D1E7AF
:101090000020CFE70438024000004742800E47425C
:1010A000007000400000FFFF2DE9FE4304460026CB
:1010B00003200D4684F83400606C03285ED0B5F53B
:1010C000805F5BD04FF4006700204FF08068BD4226
:1010D0001FD18146009001900021206800F0A8FFF8
:1010E000800113D46946204601F028FB07000DD18A
:1010F0000198400334D5B4F850000104206800F092
:10110000C8FF070002D10221206823E0A06B38430A
:1011100028E01DB1A06B40F0006023E08146009004
:1011200001900021206800F083FF8001EED4694621
:10113000204601F003FB0700E8D10198C0030FD55A
:10114000B4F850000104206800F0A3FF0700DDD1CF
:101150000021206800F0E9FF0700D7D14F46D5E70E
:101160004746D3E7A063A06B144F4FF0010848B186
:101170002068876384F8348001260EE0A06B40F07D
:101180008050EFE7211DD4E9050C0EC9CDE90050D0
:10119000CDF808C0206800F04EFF4FF400712068C1
:1011A00000F0AAFF28B121688F63A16B0143A163FE
:1011B000012684F834803046BDE8FE83FF054000F8
:1011C0002DE9F041044690F834000E4615460128FA
:1011D00002D00220BDE8F0810020A063B54203D216
:1011E000A06B40F0006005E0E06DA84204D2A06B67
:1011F00040F00070A0633CE0032084F8340094F8D1
:101200004C00DFF87C8080064FF0010706D421688F
:10121000C1F83880A06B40F080600BE000212068AE
:1012200000F006FF800107D52168C1F83880A06B67
:1012300040F40060A0631AE0606C012803D07602DD
:101240006D02032809D03146206801F02AF840B920
:101250002946206801F00CF818B9206800F07EFFDC
:1012600048B12268C2F83880A16B0143A16384F8B9
:1012700034700120AEE784F834700020AAE7000043
:10128000FF054000F0B5426E920F0A70426EC2F345
:1012900083624A70426EC2F301628A70426E120C1F
:1012A000CA70B0F86420120A0A7190F864204A717A
:1012B000826E120DCA80826EC2F303420A72B0F8C7
:1012C0006820C2F3C0324A72B0F86820C2F380329C
:1012D0008A72B0F86820C2F34032CA72B0F868204F
:1012E000C2F300320A7300264E73426C4FF400754D
:1012F000012462B1012A3AD0026847499163816BA7
:1013000041F08051816380F834400120F0BDB0F895
:101310006820C36E9205120D42EA93720A61C26E92
:10132000C2F3C2620A75C26EC2F302624A75C26E2D
:10133000C2F342528A75C26EC2F38242CA75C26E4D
:10134000C2F3C2320A760A69521C42650B7E03F070
:1013500007039B1C9A4042650B7A03F00F0704FABF
:1013600007F383655B0A5A43C0E917250EE090F83E
:101370006820C36E9206920A42EA13420A610A6921
:10138000521C92024265C0E91652056630F86C2F75
:10139000C2F3803201F8192F0288C2F3C6124A70D4
:1013A000027802F07F028A704268D20FCA704268E7
:1013B000C2F341720A714268C2F382624A714268A2
:1013C000C2F383528A714268C2F34052CA710E72EC
:1013D0004268C2F300424A728288C2F3C0328A7203
:1013E0008288C2F38032CA728288C2F340320A73A2
:1013F0008288C2F300324A738288C2F381228A73E0
:101400008288C2F30122CA730079C0F346000874CF
:101410004C740020F0BD0000FF054000426C0A60E3
:10142000826C4A60C26C8A60026DCA60426D0A6159
:10143000826D4A61C26D8A61006EC861002070478A
:1014400070B50446B0F8500000250104206800F093
:101450009EFF18B1A16B0143A16304E00021206845
:1014600000F0E6FD0546C5F3432070BD70B50400ED
:101470000ED094F83400002518B92577204600F0E6
:101480004FF8032084F83400204600F00BF808B130
:10149000012070BDA5632563012084F8340000207D
:1014A00070BD0000FEB50025044676200095CDE90C
:1014B000015029460B460A46206800F0BCFD48BB97
:1014C000154E46F8A05F206800F0C7FD0125356085
:1014D0000220FFF7A7F9204601F018FA30B100BF4B
:1014E00084F83450A16B0143A16313E0204601F05E
:1014F00095F90028F4D14FF40071206800F0FCFD4C
:10150000002808D0226805499163A16B0143A163BB
:1015100084F834500120FEBD00802542FF054000C4
:10152000F0B587B0044614216846FEF7F5FF1D4963
:101530002068884233D11C480024016841F40061CE
:101540000160006800F400600590174814380168D5
:1015500041F004010160016801F004010591016896
:1015600041F0080101600068022500F008000590C4
:101570004FF4F850CDE9000502AA03260C2782E8B3
:10158000D00069460948FFF75FF90420CDE900055E
:1015900002AA694682E8D0000548FFF755F907B06E
:1015A000F0BD0000002C0140443802400008024019
:1015B000000C02402DE9F04F87B09B4616460D46C1
:1015C0000446FFF73FFA00903DB194F8340001283B
:1015D00007D0A06B40F000500DE0A06B40F0006021
:1015E00009E00020A063E26D06EB0B01914204D9F3
:1015F000A06B40F00070A0638AE0032184F83410EF
:101600002168C862616C012900D076024FF0FF3179
:1016100001914FEA4B2102914FF0010803AA90215A
:1016200002278146CDF8188082E8820201A920684D
:1016300000F0E8FCBBF1010F05D9276331462068B3
:1016400000F0E4FD05E0C4F830803146206800F089
:10165000F6FDDFF83CA130B12268C2F838A0A16BDA
:101660000143A16350E0029E1FE0406B000413D5CC
:1016700096B10027206800F0F4FC05F8010B010A80
:1016800005F8011B010C05F8021B000E361F7F1C1C
:1016900005F8010C082FEDD3FFF7D4F901460098A7
:1016A000091A1098814220D2F8B12068426B40F2AA
:1016B0002A310A42D9D0416BC90509D5BBF1010FC6
:1016C00006D9616C032903D000F092FE0028C3D133
:1016D0002068416B090702D4416B89051AD5C0F80F
:1016E00038A0A06B40F0080050E02168C1F838A095
:1016F000A06B40F00040A06384F83480C4F83090C0
:10170000032007B0BDE8F08F84F83480C4F830902F
:101710000120F6E7416B890705D5C0F838A0A06B1A
:1017200040F0020032E0416B89061BD5C0F838A0BA
:10173000A06B40F0200029E000F093FC05F8010BBD
:10174000010A05F8011B010C05F8021B000E05F843
:10175000010C361FFFF776F90099411A1098814263
:101760000ED268B12068416B890201D5002EE3D109
:10177000216840F23A50886384F834800020C0E742
:101780002168C1F838A0A06B40F00040A063BBE71F
:10179000FF0540002DE9F04F8DB09B4616460D46E3
:1017A0000446FFF74FF90A903DB194F83400012840
:1017B00007D0A06B40F000500DE0A06B40F000603F
:1017C00009E00020A063E26D06EB0B01914204D911
:1017D000A06B40F00070A0637AE0032184F834101D
:1017E0002168C862616C012900D076024FF0FF3198
:1017F00003914FEA4B2104919021CDE905104FF060
:101800000109CDE90709824603A9206800F0FAFB27
:10181000BBF1010F06D9202020633146206800F07B
:1018200001FE05E0102020633146206800F013FE21
:101830005FEA000806D0216841488863A06B40EA4F
:10184000080074E0049E27E0406B40041CD5DEB124
:101850005FF0000715F8010B009015F8011B361F0B
:1018600040EA0120009015F8021B40EA0140009078
:1018700015F8011C40EA016000906946206800F0FC
:1018800003FC7F1C082FE5D3FFF7DCF80A99411A07
:101890001698814220D2F8B12068416B40F21A328A
:1018A0001142D1D0416BC90523D5BBF1010F20D91D
:1018B000616C03291DD000F09BFDD0B12268204946
:1018C0009163A16B0143A16384F83490C4F830A004
:1018D00001200DB0BDE8F08F216819488863A06B26
:1018E00040EA0800A06384F83490C4F830A00320D4
:1018F000EFE72068416B090702D4416B890505D5E4
:101900000F498163A06B40F0080010E0416B89072C
:1019100005D50B498163A06B40F0020007E0416BE5
:10192000C90606D506498163A06B40F01000A0638C
:10193000CAE740F23A51816384F834900020C8E746
:10194000FF05400010B5401EB0F1807F01D301209B
:1019500010BD4FF0E02460610F21601701F06DF9B8
:101960000020A06107202061002010BD70B5040098
:1019700004D094F84100002510B106E0012070BDAC
:1019800084F84050204600F023F8242084F84100D9
:101990002068C16821F40051C160204601F0C6F8FA
:1019A0002068016921F4904101612068416921F0BA
:1019B0002A0141612068C16841F40051C160656439
:1019C000202084F8410084F842006563002070BD47
:1019D00010B586B0044614216846FEF79DFD1449F3
:1019E0002068884221D113480021026842F0100289
:1019F0000260006800F0100005900E48143802687C
:101A000042F001020260006800F0010005904FF40E
:101A1000C06000900220CDE901010320039007205F
:101A2000049069460448FEF70FFF06B010BD0000A1
:101A3000001001404438024000000240FEE7000070
:101A400010B504490448FEF7C9FE0249491E087052
:101A500010BD00000A000020402F000810B586B01D
:101A600014216846FEF758FD1A480024016841F029
:101A700004010160016801F004010591016841F071
:101A800080010160016801F080010591016841F069
:101A900001010160016801F001010591016841F057
:101AA000080101600068694600F008000590012007
:101AB000CDE90004022002900748FEF7C5FE082089
:101AC000CDE90004694605480294FEF7BDFE06B064
:101AD00010BD00003038024000000240000C0240FF
:101AE0000648054901600021416081600622C1600D
:101AF000C0E9051201617047002C01402000002060
:101B00000C4810B50A4901604FF4E13141600021F1
:101B100081600C22C160C0E904128161C161FFF7DC
:101B200025FF002803D0BDE81040FEF755BE10BDCC
:101B300000100140A4000020FEE7FEE7704700000F
:101B400070B500250A2413A0FEF70EFC2246294694
:101B50001748FFF735FB60B116A000BFFEF704FC85
:101B60001348FFF76DFC0446014618A0FEF7FCFB86
:101B700008E01CA0F2E70120FEF754FE0C48FFF736
:101B80005FFC0446042CF6D1BDE870401AA0FEF7B5
:101B9000EBBB00000D0A2A2A2A2045726173696E88
:101BA0006720626C6F636B73202A2A2A0D0A00007B
:101BB0002000002045726173696E6720626C6F635C
:101BC0006B732C6661696C0D0A00000047657443F5
:101BD000617264537461746528293D2025640D0A7F
:101BE0000000000045726173696E6720626C6F636C
:101BF0006B732C4F4B0D0A00426C6F636B7320307C
:101C00002D3130206973206572617365642E0D0A71
:101C10000000000000B589B069461948FFF7FEFBD7
:101C200020B118A0FEF7A0FB09B000BD1DA0FEF773
:101C30009BFB26A00099FEF797FB28A00199FEF7D1
:101C400093FB2BA00299FEF78FFB2EA00399FEF7C2
:101C50008BFB33A00499FEF787FB36A00599FEF7AE
:101C600083FB3AA00699FEF77FFB3EA00799FEF79B
:101C70007BFB0498C10A42A0FEF776FBD4E7000084
:101C80002000002048414C5F53445F476574436126
:101C90007264496E666F2829206572726F720D0A30
:101CA000000000000D0A2A2A2A2048414C5F5344B4
:101CB0005F47657443617264496E666F28292069C5
:101CC0006E666F202A2A2A0D0A00000043617264A2
:101CD00020547970653D2025640D0A0043617264CB
:101CE0002056657273696F6E3D2025640D0A0000F1
:101CF0004361726420436C6173733D2025640D0A57
:101D00000000000052656C61746976652043617261
:101D10006420416464726573733D2025640D0A007C
:101D2000426C6F636B20436F756E743D2025640DAC
:101D30000A000000426C6F636B2053697A65284289
:101D400079746573293D2025640D0A004C6F67691D
:101D5000426C6F636B436F756E743D2025640D0A92
:101D6000000000004C6F6769426C6F636B53697AC7
:101D700065284279746573293D2025640D0A0000A9
:101D800053442043617264204361706163697479D4
:101D9000284D42293D2025640D0A000030B5ADF5DF
:101DA000017D1BA0FEF7E0FA01254FF47A740522AD
:101DB0002B4601A91D480094FFF7FCFB08B11CA0AD
:101DC00020E022A0FEF7D0FA01A925A0FEF7CCFA68
:101DD00006222B4601A915480094FFF7EBFB0028CB
:101DE00012D124A0FEF7C0FA27A0FEF7BDFA0B24FB
:101DF00001AD2BA0295DFEF7B7FA641CA4B20F2C2D
:101E0000F7D909A0FEF7B0FA0DF5017D30BD00004D
:101E10000D0A2A2A2A2052656164696E6720626C65
:101E20006F636B73202A2A2A0D0A0000200000200D
:101E30005265616420626C6F636B20352C20666193
:101E4000696C202A2A2A0D0A00000000526561648C
:101E500020626C6F636B20352C204F4B0D0A000005
:101E600054686520737472696E672069733A20251F
:101E7000730D0A005265616420626C6F636B2036DB
:101E80002C204F4B0D0A00004461746120696E20C4
:101E90005B31303A31355D2069733A200000000033
:101EA00025642C00F0B5ADF5017D23A0FEF75CFAAA
:101EB0004FF400773A46274901A8FEF7FBFA0126BE
:101EC0004FF47A750522334601A923480095FFF7A0
:101ED00061FC010005D021A0FEF746FA0DF5017D59
:101EE000F0BD29A0FEF740FA01A92DA0FEF73CFAAB
:101EF000002001AC2054401C80B2B842FAD3062224
:101F00003346214614480095FFF744FC08B129A048
:101F10000FE030A0FEF728FA33A0FEF725FA0B25D4
:101F200037A0615DFEF720FA6D1CADB20F2DF7D919
:101F300007A0FEF719FAD1E70D0A2A2A2A205772BC
:101F40006974696E6720626C6F636B73202A2A2A3A
:101F50000D0A0000402D000820000020577269740F
:101F60006520746F20626C6F636B20352C20666176
:101F7000696C206572726F72436F6465203D202525
:101F800064202A2A2A0D0A00577269746520746F2A
:101F900020626C6F636B20352C204F4B0D0A0000C4
:101FA00054686520737472696E672069733A2025DE
:101FB000730D0A00577269746520746F20626C6F2C
:101FC000636B20362C206661696C202A2A2A0D0A50
:101FD00000000000577269746520626C6F636B20AB
:101FE000362C204F4B0D0A004461746120696E202D
:101FF0005B31303A31355D2069733A2000000000D2
:1020000025642C000A6842624A688262D1E9022390
:102010001A43D1E904310B43C16A1A4321F0F70195
:102020001143C16200207047006800F00300704750
:1020300008444069704770B50DF1100C11439CE8DD
:1020400070002343194329434268314347F6FF6335
:102050009A430A434260002070BD032101600020C2
:102060007047D0F8800070470A688260D1E9012388
:102070001A43D1E903310B43C1681A436FF30B01D3
:102080001143C160002070470968C0F8801000202B
:10209000704710B585B004463720CDE900104020C8
:1020A0000290002003904FF480600490694620461F
:1020B000FFF7DAFF41F288323721204600F0E4F9D9
:1020C00005B010BD10B504460A4885B0014329206B
:1020D000CDE9001040200290002003904FF4806072
:1020E000049069462046FFF7BFFF204600F084FABF
:1020F00005B010BD0000108010B585B0044610205A
:10210000CDE9001040200290002003904FF4806041
:10211000049069462046FFF7A7FF41F2883210215C
:10212000204600F0B1F905B010BD10B585B00446E9
:102130000620CDE9001040200290002003904FF4CB
:102140008060049069462046FFF78EFF41F2883296
:102150000621204600F098F905B010BD10B585B0F5
:10216000044600212620CDE900104020CDE90201DF
:102170000001049069462046FFF776FF4FF218628F
:102180002621204600F080F905B010BD30B585B09D
:1021900000240546009401944FF480600294CDE938
:1021A000034069462846FFF75FFF0B484FF4FA519A
:1021B0000068B0FBF1F041F288314843401E03D281
:1021C0004FF0004005B030BD696B0906F6D5C5205B
:1021D000A8632046F6E700001C00002010B585B07B
:1021E00004464FF4D57000900820019040200290E2
:1021F000002003904FF48060049069462046FFF76A
:1022000033FF204600F05EFA05B010BD10B585B072
:1022100004461220CDE900104020029000200390D7
:102220004FF48060049069462046FFF71DFF41F29D
:1022300088321221204600F027F905B010BD10B5F4
:1022400085B004461120CDE9001040200290002006
:1022500003904FF48060049069462046FFF704FF26
:1022600041F288321121204600F00EF905B010BD70
:1022700010B585B004462120CDE900104020029021
:10228000002003904FF48060049069462046FFF7D9
:10229000EBFE41F288322121204600F0F5F805B02E
:1022A00010BD10B585B004462020CDE900104020B7
:1022B0000290002003904FF480600490694620460D
:1022C000FFF7D2FE41F288322021204600F0DCF8F0
:1022D00005B010BD10B585B004460720CDE900203B
:1022E00040200290002003904FF4806004906946E3
:1022F0002046FFF7B9FE41F288320721204600F060
:10230000C3F805B010BD10B585B004460021022009
:10231000CDE90010C020CDE902014FF480600490A7
:1023200069462046FFF7A0FE204600F03DF905B0C3
:1023300010BD10B585B004460920CDE90010C020BD
:102340000290002003904FF480600490694620467C
:10235000FFF78AFE204600F027F905B010BD10B542
:1023600085B0044600213320CDE900104020CDE99E
:1023700002010001049069462046FFF775FE41F214
:1023800088323321204600F07FF805B010BD10B52B
:1023900085B004460D20CDE90010402002900020B9
:1023A00003904FF48060049069462046FFF75CFE7E
:1023B00041F288320D21204600F066F805B010BDCC
:1023C00030B585B00C46054600210320CDE900104C
:1023D0004020CDE902010001049069462846FFF73C
:1023E00043FE22460321284600F028F905B030BDFF
:1023F00010B585B0044600210C20CDE90010402026
:10240000CDE902010001049069462046FFF72CFE49
:10241000034A0C21204600F037F805B010BD00003B
:1024200000E1F50510B585B004461920CDE900108E
:1024300040200290002003904FF480600490694691
:102440002046FFF711FE41F288321921204600F0A4
:102450001BF805B010BD10B585B004461820CDE9B5
:10246000001040200290002003904FF48060049000
:1024700069462046FFF7F8FD41F2883218212046D0
:1024800000F002F805B010BD454B10B51B684FF4C5
:10249000FA54B3FBF4F353435B1E02D24FF00040F7
:1024A00010BD426B12F0450FF6D01205F4D4426B0A
:1024B000520703D504218163084610BD426BD20741
:1024C00002D00121816305E0C52282630269D2B294
:1024D0008A4201D0012010BD0021FFF7A9FD31493A
:1024E000084201D1002010BD002802DA4FF0007030
:1024F00010BD410001D5402010BD810001D58020D4
:1025000010BDC10002D54FF4807010BD010102D58D
:102510004FF4007010BD410102D54FF4806010BD32
:10252000C10102D54FF4006010BD010202D54FF485
:10253000805010BD410202D54FF4005010BD810201
:1025400002D54FF4804010BDC10202D54FF40040C7
:1025500010BD410302D54FF4003010BD810302D5F8
:102560004FF4802010BDC10302D54FF4002010BDF0
:10257000010402D54FF4801010BD410402D54FF480
:10258000001010BD810402D54FF4800010BD00077B
:1025900002D54FF4000010BD4FF4803010BD000094
:1025A0001C00002008E0FFFD12494FF4FA520968B0
:1025B000B1FBF2F141F288325143491E02D24FF091
:1025C00000407047426B12F0450FF6D01205F4D46C
:1025D000416B490703D50421816308467047416B6D
:1025E000C90703D00121816308467047C521816373
:1025F000002070471C0000200F494FF4FA52096870
:10260000B1FBF2F141F288325143491E02D24FF040
:1026100000407047426B12F0450FF6D01205F4D41B
:10262000416B490703D50421816308467047C521E2
:1026300081630020704700001C00002030B5204B53
:102640004FF4FA541B68B3FBF4F341F2883463434C
:102650005B1E02D24FF0004030BD446B14F0450FBA
:10266000F6D02405F4D4436B5B0703D504218163C2
:10267000084630BD436BDB0702D00121816303E0D4
:102680000369DBB28B4201D0012030BDC5218163DB
:102690000021FFF7CDFC10F4604F04D0410406D5B3
:1026A0004FF4005030BD000C1080002030BD0004FD
:1026B00002D54FF4805030BD4FF4803030BD000063
:1026C0001C00002014494FF4FA520968B1FBF2F1E2
:1026D00041F288325143491E02D24FF00040704708
:1026E000426B12F0450FF6D01205F4D4416B490746
:1026F00003D50421816308467047416BC90703D0A5
:102700000121816308467047416B490601D540218C
:1027100081630020704700001C00002010B5064CAB
:1027200001202070FEF704F818B9207820F001008D
:102730002070207810BD0000080000202DE9F0472F
:1027400088B00D460446FEF77DF9002682460096C5
:102750000196374608212068FFF7CEFC00282CD1CF
:10276000B4F8500001042068FFF793FC002824D13E
:10277000401E4FF00808CDE9020830204FF0020952
:10278000CDE904090120CDE9067002A92068FFF710
:1027900039FC2068FFF7E3FD00280ED16F46206862
:1027A000416B11F02A0F0BD0416B090702D4416B2A
:1027B00089051AD5C0F83880082008B0BDE8F08730
:1027C000416B890205D5FFF74CFC47F82600761CC3
:1027D00002E0416B8904E7D5FEF734F9A0EB0A006B
:1027E000401CDCD14FF00040E7E7416B890703D57F
:1027F000C0F838900220E0E7416B890603D520211C
:1028000081630846D9E740F23A518163019800BAE2
:102810002860009800BA68600020CEE710B590B03C
:1028200004460120ADF838002068FFF7FDFB0028C2
:1028300054D0606C032842D02068FFF764FD002864
:102840004AD100212068FFF7F3FB6067042120686C
:10285000FFF7EEFBA06708212068FFF7E9FBE067C0
:102860000C212068FFF7E4FBC4F88000606C0328AB
:1028700025D00EA92068FFF7A3FD00282CD1606C9D
:1028800003281CD0BDF83800206501042068FFF73C
:1028900050FD002820D100212068FFF7C9FB6066A9
:1028A00004212068FFF7C4FBA06608212068FFF719
:1028B000BFFBE0660C212068FFF7BAFB206704210C
:1028C0002068FFF7B5FB000DE06403A92046FEF782
:1028D000D9FC30B14FF0805010B010BD4FF0806087
:1028E000FAE7B4F85000002302042068FFF7F2FC76
:1028F0000028F1D104F1100007C88DE8070094E822
:102900000F00FFF798FB0020E6E700002DE9F84FE5
:102910000026044600963546B0460068FFF736FCB0
:10292000002827D12068FFF759FC4FF0805B4FF05B
:1029300001094FF6FF7748B1A6642068FFF726FC2F
:10294000002817D1A06C012802D020E0C4F84890DC
:1029500000212068FFF79DFB58B918E0002120688E
:10296000FFF797FB002805D151462068FFF7AAFB27
:1029700010B15846BDE8F88F00212068FFF758FBDA
:1029800005464FEAD0780098401C009002E0DFF83E
:102990002CA00098B84202D2B8F1000FDED0009807
:1029A000B84202D34FF08070E4E7680002D5C4F863
:1029B000449000E066640020DCE70000000010C1E5
:1029C00070B5064C054601202070FDF7BDFE18B914
:1029D0002846FFF7A3FE2070207870BD0800002075
:1029E00010B5124888B014460078C00702D0032002
:1029F00008B010BDC1B1012905D0022908D00329B2
:102A00000CD00420F4E76846FDF78CFE06980AE037
:102A10006846FDF787FE0798208005E06846FDF7C9
:102A200081FE0798400A20600020E1E708000020AE
:102A300070B51D46164608460124A31E2A46314697
:102A4000FDF7A8FE28B900BFFDF772FE0028FBD1F4
:102A50000024204670BDFFF761BE000070B51D4622
:102A6000164608460124A31E2A463146FDF7A2FE5B
:102A700028B900BFFDF75CFE0028FBD100242046EA
:102A800070BD7047FDF7E4BF30B593B030216846A4
:102A9000FDF742FD14210CA8FDF73EFD1D48002561
:102AA000016841F080510160006800F08050119091
:102AB0001948016841F4804101600068022400F473
:102AC0008040119001200090000401908001CDE928
:102AD000064004200890A820CDE9090407200B90A7
:102AE0006846FEF72BF908B172B6FEE70CA90F2075
:102AF00081E831004FF4A0500F904FF480501090B7
:102B000005210CA8FEF730F8002801D072B6FEE7C8
:102B100013B030BD403802400070004002480168E8
:102B200041F470010160704788ED00E070B5044623
:102B300000680169E26821F4405111430161216993
:102B4000A068E26908436169114308432168CA68C3
:102B500049F20C639A430243CA6020684169A26942
:102B600021F440711143416131492068884202D00B
:102B70003049884202D1FEF7A1F801E0FEF78EF855
:102B8000E2690023192164253226B2F5004F6268FC
:102B900028D0A0FB0101930F9200FDF76EFB0146C8
:102BA000B0FBF5F06FF01802504301EB800006EB2C
:102BB0000010B0FBF5F000F0F002B1FBF5F002EB15
:102BC0000012B1FBF5F06FF01803584301EB8000E1
:102BD00006EB0010B0FBF5F000F00F002168104488
:102BE000886070BDA0FB010192185B41FDF745FBB9
:102BF0000146B0FBF5F00201B1FBF5F06FF01803F0
:102C0000584301EB800006EBC000B0FBF5F000F08C
:102C1000F80002EB4002B1FBF5F0584301EB8000F5
:102C200006EBC000B0FBF5F000F00700D6E70000AF
:102C30000010014000140140FEE70907090E0028BA
:102C400004DB00F1E02080F80014704700F00F0072
:102C500000F1E02080F8141D7047704703490A68AE
:102C60005206FCD5C2B24A60704700000010014015
:102C7000FDF7F6FEFFF708FFFEF7F0FEFEF730FF68
:102C8000FEF7DEFEFEF73CFF1F48FEF7EFFB4FF4BA
:102C900000611D48FEF708FA1C4C1D4D20B11DA017
:102CA000FDF762FB72B6FEE701212846FDF7C4FE80
:102CB0000128F9D13220FDF7B5FD01212846FDF7A5
:102CC000BBFE0128F0D1207830B1012807D00228BE
:102CD00008D003280BD108E0FEF79CFF07E0FEF7C1
:102CE0002FFF04E0FFF7DEF801E0FFF757F8207848
:102CF000401C00F00300207001212846FDF79CFED7
:102D00000028F9D1D0E700002000002000000020BA
:102D100000000240E8AEBEE7BDAEE5A4B1E8B4A550
:102D2000EFBC8CE5A484E79086E99499E8AFAF5CAA
:102D30006E0000004FF04070E1EE100A7047000096
:102D400048656C6C6F2C2077656C636F6D652074C3
:102D50006F205550430000000000000000000000FC
:102D60000000000000000000000000000000000063
:102D70000000000000000000000000000000000053
:102D80000000000000000000000000000000000043
:102D90000000000000000000000000000000000033
:102DA0000000000000000000000000000000000023
:102DB0000000000000000000000000000000000013
:102DC0000000000000000000000000000000000003
:102DD00000000000000000000000000000000000F3
:102DE00000000000000000000000000000000000E3
:102DF00000000000000000000000000000000000D3
:102E000000000000000000000000000000000000C2
:102E100000000000000000000000000000000000B2
:102E200000000000000000000000000000000000A2
:102E30000000000000000000000000000000000092
:102E40000000000000000000000000000000000082
:102E50000000000000000000000000000000000072
:102E60000000000000000000000000000000000062
:102E70000000000000000000000000000000000052
:102E80000000000000000000000000000000000042
:102E90000000000000000000000000000000000032
:102EA0000000000000000000000000000000000022
:102EB0000000000000000000000000000000000012
:102EC0000000000000000000000000000000000002
:102ED00000000000000000000000000000000000F2
:102EE00000000000000000000000000000000000E2
:102EF00000000000000000000000000000000000D2
:102F000000000000000000000000000000000000C1
:102F100000000000000000000000000000000000B1
:102F200000000000000000000000000000000000A1
:102F30000000000000000000000000000000000091
:102F4000C1290008572A0008312A00085D2A000814
:102F5000E129000800000000000000000102030455
:102F60000607080900000000010203048C2F000876
:102F70000000002020000000C4010008AC2F000861
:102F80002000002038130000E001000800000000CD
:102F9000000000000100000000000000010000002F
:0C2FA00010000000000000000024F400FD
:040000050800018965
:00000001FF
