:020000040800F2
:10000000E817002039020008AF1B0008B11A0008E9
:10001000AD1B000849080008AD2C000800000000D6
:10002000000000000000000000000000F72A0008A7
:100030004B08000800000000B11B0008F92A000866
:10004000530200085302000853020008530200083C
:10005000530200085302000853020008530200082C
:10006000530200085302000853020008530200081C
:10007000530200085302000853020008530200080C
:1000800053020008530200085302000853020008FC
:1000900053020008530200085302000853020008EC
:1000A00053020008530200085302000853020008DC
:1000B00053020008530200085302000853020008CC
:1000C00053020008530200085302000853020008BC
:1000D00053020008530200085302000853020008AC
:1000E000530200085302000853020008530200089C
:1000F000530200085302000853020008530200088C
:10010000530200085302000853020008530200087B
:10011000530200085302000853020008530200086B
:10012000530200085302000853020008530200085B
:10013000530200085302000853020008530200084B
:10014000530200085302000853020008530200083B
:10015000530200085302000853020008530200082B
:10016000530200085302000853020008530200081B
:100170005302000853020008530200080000000068
:10018000530200085302000800F002F800F044F89F
:100190000AA090E8000C82448344AAF10107DA45E2
:1001A00001D100F039F8AFF2090EBAE80F0013F0F0
:1001B000010F18BFFB1A43F001031847444E00001B
:1001C000644E0000103A24BF78C878C1FAD85207AC
:1001D00024BF30C830C144BF04680C6070470000C1
:1001E0000023002400250026103A28BF78C1FBD840
:1001F000520728BF30C148BF0B607047642900F028
:100200003181732900F06F82002070471FB504F020
:10021000B0FB1FBD10B510BD00F080FA1146FFF70E
:10022000F5FF03F0F1FF00F09EFA03B4FFF7F2FFD1
:1002300003BC02F04CFD0000094880470948004714
:10024000FEE7FEE7FEE7FEE7FEE7FEE7FEE7FEE786
:10025000FEE7FEE704480549054A064B70470000E3
:10026000912B000889010008E8050020E81700200C
:10027000E8070020E8070020704753EA020C00F06E
:1002800069802DE9F04B4FF00006002B1FBFB3FA39
:1002900083F503FA05F424FA05F65E4012BF16430F
:1002A000B2FA82F502FA05F4C5F120051EBF22FA62
:1002B00005FC44EA0C04203556EA044C4FEA144489
:1002C00018BF641C4FF000084FF00009904271EB1A
:1002D000030C39D3002919BFB1FA81F701FA07F6E7
:1002E000B0FA80F700FA07F6C7F120071EBF20FA20
:1002F00007FC46EA0C062037B6FBF4FCA7EB050723
:10030000103F07F01F0BCBF120060CFA0BFB2CFA69
:1003100006F644BFB3460026202FA4BF5E464FF02A
:10032000000B5BEA060C08BF4FF0010B19EB0B0941
:10033000ABFB027C48EB0608C01B06FB02CC0BFBA8
:1003400003CC71EB0C01C1E70B460246414648461F
:10035000BDE8F08B13B54FF000004FF00001AFF394
:100360000080BDE81C4070470FB4044910B503AAD3
:10037000029800F0BDF910BC5DF814FB04000020E9
:100380000FB41CB5074B06AA7B446946009005983C
:1003900000F07FF90020694600F08EF91CBC5DF882
:1003A00014FB00002D0300002DE9F0410E46044629
:1003B000002020622046E168884730B3252805D018
:1003C000D4E901219047206A401CF2E7E168204609
:1003D00000278847050018D0A5F14100192802D848
:1003E00020354FF400673246294620462760FFF744
:1003F00005FF40B1012804D0F61D26F00706083697
:10040000D8E7361DD6E72846DAE7206ABDE8F0814E
:1004100070B50C460546012A05D02878800600D51F
:10042000EA69002302E0012305E05B1C934202D24B
:10043000E05C0028F9D1A869E618C01AA861286A0A
:10044000184428622846AFF3008004E0D5E9012172
:1004500014F8010B9047B442F8D32846AFF300805C
:1004600070BD00002DE9F041064600241068752992
:10047000314616A510D0AFF30080002802DA4042C2
:1004800013A507E031688A0701D512A502E04907E4
:1004900004D511A5012401E0AFF3008000210A2258
:1004A00006F1240709E0B0FBF2FCB0FBF2F302FB1B
:1004B0001C00303078541846491C0028F3D12346DC
:1004C0002A463046BDE8F04100F084B80000000044
:1004D0002D0000002B0000002000000010B5431C80
:1004E00002E010F8011B71B18107FAD14FF001321F
:1004F00002C88C1A8C4314EAC211F9D0C01A0A0639
:1005000003D0C01E10BDC01A10BD0A0401D0801E49
:1005100010BD0902FCD0401E10BD10B5203AC0F03D
:100520000B80B1E81850203AA0E81850B1E81850F4
:10053000A0E81850BFF4F5AF5FEA027C24BFB1E831
:100540001850A0E8185044BF18C918C0BDE81040A2
:100550005FEA827C24BF51F8043B40F8043B08BFAB
:100560007047D20728BF31F8023B48BF11F8012B72
:1005700028BF20F8023B48BF00F8012B70474FF01E
:10058000000200B5134694469646203922BFA0E8E3
:100590000C50A0E80C50B1F12001BFF4F7AF0907EF
:1005A00028BFA0E80C5048BF0CC05DF804EB8900E0
:1005B00028BF40F8042B08BF704748BF20F8022B23
:1005C00011F0804F18BF00F8012B7047704770473B
:1005D000704770472DE9F0470D469946924604460C
:1005E00000F124080168880604D5E06921F01001B3
:1005F000216000E00120A84201DD471B00E0002748
:10060000A1697A1902EB0900081AA0612078C006D6
:1006100002D42046AFF30080002608E0D4E901218F
:100620001AF806009047206A401C761C20624E454E
:10063000F4DB2078C0060AD52046AFF3008006E040
:10064000D4E9012130209047206A401C2062381EE6
:10065000A7F10107F4DC07E0D4E9012118F805004F
:100660009047206A401C2062281EA5F10105F3DC9A
:100670002046AFF300802078000602D50220BDE8B6
:10068000F0870120FBE7000001694A1C026108783D
:10069000704700B58FB0CDE90131002105910549C2
:1006A0007944CDE9031011466846FFF77DFE0FB08F
:1006B00000BD0000E5FFFFFF0A6802F8010B0A60B9
:1006C000704710B5436913B1AFF3008001E0FFF745
:1006D0009FFE012010BD127800F124010A70002253
:1006E0004A700122EDE711684FF0FF32E9E70000A0
:1006F000074B70B50D467B44FFF7CBFF04462846F9
:1007000000F008F810B14FF0FF3070BD204670BD0A
:10071000B3380000007B00F080007047754600F0A1
:100720002BF8AE4605006946534620F00700854683
:1007300018B020B5FFF78EFDBDE820404FF0000651
:100740004FF000074FF000084FF0000B21F00701B9
:10075000AC46ACE8C009ACE8C009ACE8C009ACE8FC
:10076000C0098D46704710B50446AFF3008020469F
:10077000BDE81040FFF759BD0048704784050020D0
:1007800010B501240821034800F090F900B10024BD
:10079000204610BD000C02400146014800F078BE22
:1007A0002800002010B5044800F084FE042801D081
:1007B000012010BD002010BD2800002010B500F061
:1007C00015F8012801D0012010BD074800F088FE6F
:1007D000040006D14FF40061034800F09FFC00B113
:1007E0000124204610BD00002800002008B501208B
:1007F0008DF80000FFF7C4FF10B900208DF800004D
:100800009DF8000008BD000038B500240093134691
:100810000A460146034800F007FF00B101242046C4
:1008200038BD00002800002038B50024009313468E
:100830000A460146034800F0E7FF00B101242046C4
:1008400038BD000028000020FEE7704772B6FEE7C2
:10085000002200F001B8000030B50E4B0546012023
:100860005C7A002C14D1587A1C54587A03EB80001F
:1008700045605D7A03F108002A54587A421C5A7286
:10088000303008703A2048702F208870CC700020DB
:1008900030BD00007805002070B5044600F00CF96A
:1008A0000546601C02D004480078044400F004F9B6
:1008B000401BA042FAD370BD100000202DE9F84F74
:1008C000DFF8BCA10022012503264FF00F090AF131
:1008D000040BAAF1040E00BF0B6805FA02F42340D2
:1008E000A34270D10F7907F00307012F01D0022F27
:1008F00016D187684FEA420806FA08FC27EA0C0777
:10090000D1F80CC00CFA08FC4CEA070CC0F808C07F
:100910004768A7430C79C4F3001494403C434460F7
:100920000C79E443A4070AD0C4684FEA420C06FAE3
:100930000CF7BC438F6807FA0CF72743C7600C79A4
:1009400004F00304022C12D1D40800EB840CDCF870
:1009500020405707FF0E09FA07F824EA0804D1F8E7
:10096000108008FA07F848EA0408CCF820800468E8
:100970004FEA420C06FA0CF7BC430F7907F0030765
:1009800007FA0CF7274307604C6814F4403F70D017
:100990003C4C276847F480472760246822F003070F
:1009A00004F480440094384C07EB040CDCF808484D
:1009B00097074FEA177809FA08F7BC43334FB84254
:1009C00002D1002724E054E0314FB84201D1012781
:1009D0001EE0304FB84201D1022719E02E4FB84235
:1009E00001D1032714E02D4FB84201D104270FE0B5
:1009F0002B4FB84201D105270AE02A4FB84201D156
:100A0000062705E0284FB84201D1072700E0082754
:100A100007FA08F72743CCF80878DAF80040574679
:100A2000D1F804C09C435FEACC2C00D51C433C6049
:100A3000DBF800405F46D1F804C09C435FEA8C2C91
:100A400000D51C433C60DEF800407746D1F804C076
:100A50009C435FEA8C3C00D51C433C60084F083F38
:100A60003C68D1F804C09C435FEACC3C00D51C43F1
:100A70003C60521C102AFFF42FAFBDE8F88F000035
:100A8000083C014044380240003001400000024070
:100A90000004024000080240000C02400010024026
:100AA0000014024000180240001C02400069084087
:100AB00000D00120704700000148806870470000A6
:100AC000100000200248816802781144816070475C
:100AD000100000200B4810B5016841F4007101605E
:100AE000016841F480610160016841F48071016036
:100AF000032000F061F80F2000F006F800F024F861
:100B0000002010BD003C024070B50D4D04464FF46E
:100B10007A712878B1FBF0F00A490968B1FBF0F06E
:100B200000F04AFF48B9102C07D200222146501E7F
:100B300000F022F800206C6070BD012070BD000044
:100B4000100000201C0000200A4808B5016841F48C
:100B500080410160006800F4804000900548001F5B
:100B6000016841F080510160006800F08050009001
:100B700008BD000044380240F0B40E4B1B680C4620
:100B8000C3F30223C3F10705042D00D90425191D61
:100B9000072901D2002300E0DB1E012606FA05F139
:100BA000491E214099409E40761E16403143F0BCBC
:100BB00002F07DB80CED00E0064900F0070208687D
:100BC0004FF6FF03184040EA0220034A1043086032
:100BD000704700000CED00E00000FA052DE9F04739
:100BE0000E46050065D0DFF81481D8F80000F7B292
:100BF00000F00700B04207D288F80070D8F8000073
:100C000000F00700B04254D128683D4C810712D54E
:100C1000400703D5206840F4E050206028780007A2
:100C200003D5206840F4604020602068A96820F067
:100C3000F000084320602878C0072DD0304968684C
:100C40000839012812D0022813D0032811D00968CE
:100C5000890700292DDA216821F003010143216071
:100C6000FFF72AFF814641F2883A0EE009688903BE
:100C7000EFE709688901ECE7FFF71EFFA0EB090128
:100C8000514502D90320BDE8F0872068696800F06B
:100C90000C00B0EB810FEFD1D8F80010404601F006
:100CA0000701B14207D90770006800F00700B042A1
:100CB00001D00120E7E72878400705D52068E968DA
:100CC00020F4E050084320602878000706D520680B
:100CD000296920F4604040EAC100206000F038F843
:100CE0002168084AC1F30311515CC84006490860F5
:100CF00006480068FFF708FF0020C4E7003C0240F8
:100D000008380240904B00081C000020140000200E
:100D10000448054900680968044AC1F38221515C0E
:100D2000C84070471C00002008380240A04B000853
:100D30000448054900680968044AC1F34231515C1E
:100D4000C84070471C00002008380240A04B000833
:100D5000154810B5006810F00C02144813D041106B
:100D6000042A0FD0082A0ED10F4C241F22682368B2
:100D700002F03F025B0207D52068C0F38810A0FB99
:100D8000010106E0084610BD2168C1F38811A1FBEE
:100D900000010023FFF771FA2168C1F30141491CEA
:100DA0004900B0FBF1F010BD083802400024F40007
:100DB0002DE9F84F04006ED02078DFF84C93C0077F
:100DC000A9F104054AD009F104000168C1F38101C9
:100DD000012908D00068C0F3810002280AD1D9F89F
:100DE0000000400206D52868800337D560680028D7
:100DF000E1D033E06068B0F5803F10D0B0F5A02FAF
:100E0000286810D020F480302860286820F48020E2
:100E100028606068A8B1FFF74FFE06460DE028681D
:100E200040F48030F4E740F480202860F7E700BF0A
:100E3000FFF742FE801B642873D828688003F7D52B
:100E40000CE0FFF739FE064605E000BFFFF734FE71
:100E5000801B6428F0D828688003F7D42078DFF856
:100E6000AC8280074FF0000A3ED5A748001D0168FC
:100E700011F00C0F08D00068C0F3810002280BD1DC
:100E8000D9F80000400207D42868800716D5E0682A
:100E9000012800D112E033E1E068B8B10120C8F8C0
:100EA0000000FFF709FE064605E000BFFFF704FE5D
:100EB000801B0228C0D828688007F7D528682169D8
:100EC00020F0F80040EAC10028600DE0C8F800A05A
:100ED000FFF7F2FD064604E0FFF7EEFD801B022857
:100EE0001FD828688007F7D42078000722D5864FBE
:100EF00087486169703771B101210160FFF7DCFD3E
:100F0000064604E0FFF7D8FD801B022809D83868A0
:100F10008007F7D50EE0C0F800A0FFF7CDFD06462C
:100F200005E082E0FFF7C8FD801B02287DD8386805
:100F30008007F7D42078400768D5DFF8CCB10027C8
:100F40000BF13C0BDBF80000C0000BD4DBF8001009
:100F500041F08051CBF80010DBF80000012700F0D1
:100F6000805000906B4E3068C00510D4306840F45B
:100F700080703060FFF7A0FD009005E0FFF79CFD5A
:100F80000099401A022850D83068C005F6D55E4E48
:100F9000A0686C3601280FD00528306810D020F0EA
:100FA00001003060306820F004003060A068B8B103
:100FB000FFF782FD00900FE0306840F00100F4E799
:100FC00040F004003060F7E7FFF776FD0099411A22
:100FD00041F28830814266D830688007F4D50EE04F
:100FE000FFF76AFD009007E0FFF766FD0099411AE0
:100FF00041F28830814256D830688007F4D42FB14E
:10100000DBF8001021F08051CBF80010A069C8B3C4
:101010003D49091D0968C1F3810102294AD002280E
:10102000504607D0C8F8600000E03CE0FFF744FD00
:1010300004463BE04746C8F86000FFF73DFD064622
:1010400005E000BFFFF738FD801B02282BD8286879
:101050008001F7D4D4E907010843A16A2E4A490860
:1010600002EB0141626A41EA8211084394F82C10B4
:1010700040EA0161C9F8001001203866FFF71CFD45
:10108000044606E03EE000BFFFF716FD001B022805
:1010900009D828688001F7D534E000BFFFF70CFDC0
:1010A000001B022802D90320BDE8F88F28688001C0
:1010B000F4D427E00128F7D0D9F80000E26900F461
:1010C000800191421CD1226A00F03F01914217D168
:1010D00047F6C071626A0140B1EB821F10D1A26A6B
:1010E0004FF0FF3300F4403103EB5202B1EB024FFB
:1010F00006D194F82C1000F07060B0EB016F01D0B5
:101100000120D1E70020CFE7043802400000474229
:10111000800E4742007000400000FFFF2DE9FE43B3
:101120000446002603200D4684F83400606C032832
:101130005ED0B5F5805F5BD04FF4006700204FF0C4
:101140008068BD421FD18146009001900021206837
:1011500000F0A8FF800113D46946204601F028FB67
:1011600007000DD10198400334D5B4F850000104B4
:10117000206800F0C8FF070002D10221206823E0A8
:10118000A06B384328E01DB1A06B40F0006023E065
:101190008146009001900021206800F083FF8001CB
:1011A000EED46946204601F003FB0700E8D1019820
:1011B000C0030FD5B4F850000104206800F0A3FF6D
:1011C0000700DDD10021206800F0E9FF0700D7D13A
:1011D0004F46D5E74746D3E7A063A06B144F4FF0C7
:1011E000010848B12068876384F8348001260EE046
:1011F000A06B40F08050EFE7211DD4E9050C0EC92B
:10120000CDE90050CDF808C0206800F04EFF4FF443
:101210000071206800F0AAFF28B121688F63A16BDC
:101220000143A163012684F834803046BDE8FE8383
:10123000FF0540002DE9F041044690F834000E46C9
:101240001546012802D00220BDE8F0810020A063ED
:10125000B54203D2A06B40F0006005E0E06DA8420B
:1012600004D2A06B40F00070A0633CE0032084F83F
:10127000340094F84C00DFF87C8080064FF00107C2
:1012800006D42168C1F83880A06B40F080600BE084
:101290000021206800F006FF800107D52168C1F811
:1012A0003880A06B40F40060A0631AE0606C0128F5
:1012B00003D076026D02032809D03146206801F080
:1012C0002AF840B92946206801F00CF818B92068BE
:1012D00000F07EFF48B12268C2F83880A16B01435C
:1012E000A16384F834700120AEE784F834700020E4
:1012F000AAE70000FF054000F0B5426E920F0A70A9
:10130000426EC2F383624A70426EC2F301628A7017
:10131000426E120CCA70B0F86420120A0A7190F87A
:1013200064204A71826E120DCA80826EC2F303423B
:101330000A72B0F86820C2F3C0324A72B0F868206E
:10134000C2F380328A72B0F86820C2F34032CA72A7
:10135000B0F86820C2F300320A7300264E73426C64
:101360004FF40075012462B1012A3AD0026847495E
:101370009163816B41F08051816380F8344001209A
:10138000F0BDB0F86820C36E9205120D42EA937268
:101390000A61C26EC2F3C2620A75C26EC2F3026211
:1013A0004A75C26EC2F342528A75C26EC2F382425D
:1013B000CA75C26EC2F3C2320A760A69521C42650D
:1013C0000B7E03F007039B1C9A4042650B7A03F0E7
:1013D0000F0704FA07F383655B0A5A43C0E9172530
:1013E0000EE090F86820C36E9206920A42EA134219
:1013F0000A610A69521C92024265C0E916520566EA
:1014000030F86C2FC2F3803201F8192F0288C2F332
:10141000C6124A70027802F07F028A704268D20FC8
:10142000CA704268C2F341720A714268C2F38262B2
:101430004A714268C2F383528A714268C2F34052D1
:10144000CA710E724268C2F300424A728288C2F3C5
:10145000C0328A728288C2F38032CA728288C2F332
:1014600040320A738288C2F300324A738288C2F320
:1014700081228A738288C2F30122CA730079C0F381
:10148000460008744C740020F0BD0000FF054000C9
:10149000426C0A60826C4A60C26C8A60026DCA60EB
:1014A000426D0A61826D4A61C26D8A61006EC861D7
:1014B0000020704770B50446B0F8500000250104C4
:1014C000206800F09EFF18B1A16B0143A16304E006
:1014D0000021206800F0E6FD0546C5F3432070BDFD
:1014E00070B504000ED094F83400002518B92577A3
:1014F000204600F04FF8032084F83400204600F026
:101500000BF808B1012070BDA5632563012084F8A4
:101510003400002070BD0000FEB500250446762092
:101520000095CDE9015029460B460A46206800F097
:10153000BCFD48BB154E46F8A05F206800F0C7FD13
:10154000012535600220FFF7A7F9204601F018FABF
:1015500030B100BF84F83450A16B0143A16313E0A4
:10156000204601F095F90028F4D14FF4007120686D
:1015700000F0FCFD002808D0226805499163A16BAA
:101580000143A16384F834500120FEBD0080254250
:10159000FF054000F0B587B0044614216846FEF709
:1015A000EEFF1D492068884233D11C4800240168A1
:1015B00041F400610160006800F400600590174884
:1015C0001438016841F004010160016801F0040170
:1015D0000591016841F0080101600068022500F0F2
:1015E000080005904FF4F850CDE9000502AA032643
:1015F0000C2782E8D00069460948FFF75FF904200C
:10160000CDE9000502AA694682E8D0000548FFF747
:1016100055F907B0F0BD0000002C014044380240ED
:1016200000080240000C02402DE9F04F87B09B46B5
:1016300016460D460446FFF73FFA00903DB194F878
:101640003400012807D0A06B40F000500DE0A06BE3
:1016500040F0006009E00020A063E26D06EB0B01A2
:10166000914204D9A06B40F00070A0638AE003218E
:1016700084F834102168C862616C012900D07602B8
:101680004FF0FF3101914FEA4B2102914FF00108D9
:1016900003AA902102278146CDF8188082E88202B1
:1016A00001A9206800F0E8FCBBF1010F05D9276310
:1016B0003146206800F0E4FD05E0C4F83080314692
:1016C000206800F0F6FDDFF83CA130B12268C2F8D6
:1016D00038A0A16B0143A16350E0029E1FE0406B64
:1016E000000413D596B10027206800F0F4FC05F83B
:1016F000010B010A05F8011B010C05F8021B000E85
:10170000361F7F1C05F8010C082FEDD3FFF7D4F925
:1017100001460098091A1098814220D2F8B1206839
:10172000426B40F22A310A42D9D0416BC90509D532
:10173000BBF1010F06D9616C032903D000F092FEC2
:101740000028C3D12068416B090702D4416B890589
:101750001AD5C0F838A0A06B40F0080050E021680E
:10176000C1F838A0A06B40F00040A06384F834803A
:10177000C4F83090032007B0BDE8F08F84F83480BF
:10178000C4F830900120F6E7416B890705D5C0F811
:1017900038A0A06B40F0020032E0416B89061BD5F7
:1017A000C0F838A0A06B40F0200029E000F093FCC6
:1017B00005F8010B010A05F8011B010C05F8021BD5
:1017C000000E05F8010C361FFFF776F90099411A53
:1017D000109881420ED268B12068416B890201D510
:1017E000002EE3D1216840F23A50886384F83480B7
:1017F0000020C0E72168C1F838A0A06B40F000408D
:10180000A063BBE7FF0540002DE9F04F8DB09B467C
:1018100016460D460446FFF74FF90A903DB194F87D
:101820003400012807D0A06B40F000500DE0A06B01
:1018300040F0006009E00020A063E26D06EB0B01C0
:10184000914204D9A06B40F00070A0637AE00321BC
:1018500084F834102168C862616C012900D07602D6
:101860004FF0FF3103914FEA4B2104919021CDE9D4
:1018700005104FF00109CDE90709824603A9206848
:1018800000F0FAFBBBF1010F06D92020206331469E
:10189000206800F001FE05E010202063314620683A
:1018A00000F013FE5FEA000806D021684148886313
:1018B000A06B40EA080074E0049E27E0406B4004FF
:1018C0001CD5DEB15FF0000715F8010B009015F88C
:1018D000011B361F40EA0120009015F8021B40EA68
:1018E0000140009015F8011C40EA01600090694633
:1018F000206800F003FC7F1C082FE5D3FFF7DCF81D
:101900000A99411A1698814220D2F8B12068416B99
:1019100040F21A321142D1D0416BC90523D5BBF137
:10192000010F20D9616C03291DD000F09BFDD0B1BF
:10193000226820499163A16B0143A16384F834902C
:10194000C4F830A001200DB0BDE8F08F216819481F
:101950008863A06B40EA0800A06384F83490C4F860
:1019600030A00320EFE72068416B090702D4416BE8
:10197000890505D50F498163A06B40F0080010E090
:10198000416B890705D50B498163A06B40F00200CC
:1019900007E0416BC90606D506498163A06B40F09C
:1019A0001000A063CAE740F23A51816384F8349092
:1019B0000020C8E7FF05400010B5401EB0F1807F51
:1019C00001D3012010BD4FF0E02460610F216017AA
:1019D00001F06DF90020A06107202061002010BDFA
:1019E00070B5040004D094F84100002510B106E061
:1019F000012070BD84F84050204600F023F82420D8
:101A000084F841002068C16821F40051C16020467B
:101A100001F0C6F82068016921F490410161206855
:101A2000416921F02A0141612068C16841F40051F7
:101A3000C1606564202084F8410084F84200656339
:101A4000002070BD10B586B0044614216846FEF72C
:101A500096FD14492068884221D11348002102686C
:101A600042F010020260006800F0100005900E487D
:101A70001438026842F001020260006800F00100C0
:101A800005904FF4C06000900220CDE901010320D1
:101A900003900720049069460448FEF70FFF06B044
:101AA00010BD000000100140443802400000024018
:101AB000FEE7000010B504490448FEF7C9FE0249DC
:101AC000491E087010BD00000A0000207C4B000871
:101AD00010B586B014216846FEF751FD1A4800245F
:101AE000016841F004010160016801F00401059101
:101AF000016841F080010160016801F080010591F9
:101B0000016841F001010160016801F001010591E6
:101B1000016841F0080101600068694600F00800B2
:101B200005900120CDE90004022002900748FEF74D
:101B3000C5FE0820CDE90004694605480294FEF779
:101B4000BDFE06B010BD000030380240000002406B
:101B5000000C024006480549016000214160816097
:101B60000622C160C0E9051201617047002C0140E6
:101B7000280000200C4810B50A4901604FF4E131FB
:101B80004160002181600C22C160C0E904128161C2
:101B9000C161FFF725FF002803D0BDE81040FEF724
:101BA00055BE10BD00100140AC000020FEE7FEE76E
:101BB0007047000070B500250A2413A0FEF7D4FB7F
:101BC000224629461748FFF735FB60B116A000BF33
:101BD000FEF7CAFB1348FFF76DFC0446014618A048
:101BE000FEF7C2FB08E01CA0F2E70120FEF754FE5E
:101BF0000C48FFF75FFC0446042CF6D1BDE87040AA
:101C00001AA0FEF7B1BB00000D0A2A2A2A2045724D
:101C10006173696E6720626C6F636B73202A2A2A76
:101C20000D0A00002800002045726173696E67206C
:101C3000626C6F636B732C6661696C0D0A00000047
:101C400047657443617264537461746528293D204B
:101C500025640D0A0000000045726173696E6720FB
:101C6000626C6F636B732C4F4B0D0A00426C6F6399
:101C70006B7320302D31302069732065726173657C
:101C8000642E0D0A0000000000B589B069461948AD
:101C9000FFF7FEFB20B118A0FEF766FB09B000BD00
:101CA0001DA0FEF761FB26A00099FEF75DFB28A0B2
:101CB0000199FEF759FB2BA00299FEF755FB2EA0C8
:101CC0000399FEF751FB33A00499FEF74DFB36A0B4
:101CD0000599FEF749FB3AA00699FEF745FB3EA0A1
:101CE0000799FEF741FB0498C10A42A0FEF73CFBAE
:101CF000D4E700002800002048414C5F53445F4770
:101D0000657443617264496E666F2829206572723A
:101D10006F720D0A000000000D0A2A2A2A2048418D
:101D20004C5F53445F47657443617264496E666FEC
:101D3000282920696E666F202A2A2A0D0A000000D1
:101D40004361726420547970653D2025640D0A005A
:101D5000436172642056657273696F6E3D2025641D
:101D60000D0A00004361726420436C6173733D206F
:101D700025640D0A0000000052656C617469766587
:101D8000204361726420416464726573733D202551
:101D9000640D0A00426C6F636B20436F756E743D77
:101DA0002025640D0A000000426C6F636B205369AC
:101DB0007A65284279746573293D2025640D0A00EF
:101DC0004C6F6769426C6F636B436F756E743D2037
:101DD00025640D0A000000004C6F6769426C6F6358
:101DE0006B53697A65284279746573293D202564AF
:101DF0000D0A000053442043617264204361706106
:101E000063697479284D42293D2025640D0A00003C
:101E100030B5ADF5017D1BA0FEF7A6FA01254FF404
:101E20007A7405222B4601A91D480094FFF7FCFB9C
:101E300008B11CA020E022A0FEF796FA01A925A077
:101E4000FEF792FA06222B4601A915480094FFF7E7
:101E5000EBFB002812D124A0FEF786FA27A0FEF79C
:101E600083FA0B2401AD2BA0295DFEF77DFA641CDB
:101E7000A4B20F2CF7D909A0FEF776FA0DF5017D73
:101E800030BD00000D0A2A2A2A2052656164696E5D
:101E90006720626C6F636B73202A2A2A0D0A000088
:101EA000280000205265616420626C6F636B2035EE
:101EB0002C206661696C202A2A2A0D0A0000000085
:101EC0005265616420626C6F636B20352C204F4B30
:101ED0000D0A000054686520737472696E6720698A
:101EE000733A2025730D0A005265616420626C6F9D
:101EF000636B20362C204F4B0D0A00004461746147
:101F000020696E205B31303A31355D2069733A20AB
:101F10000000000025642C00F0B5ADF5017D23A084
:101F2000FEF722FA4FF400773A46274901A8FEF758
:101F3000F4FA01264FF47A750522334601A92348A5
:101F40000095FFF761FC010005D021A0FEF70CFA17
:101F50000DF5017DF0BD29A0FEF706FA01A92DA01F
:101F6000FEF702FA002001AC2054401C80B2B842B7
:101F7000FAD306223346214614480095FFF744FC65
:101F800008B129A00FE030A0FEF7EEF933A0FEF76C
:101F9000EBF90B2537A0615DFEF7E6F96D1CADB2DC
:101FA0000F2DF7D907A0FEF7DFF9D1E70D0A2A2A8E
:101FB0002A2057726974696E6720626C6F636B7355
:101FC000202A2A2A0D0A00007C4900082800002047
:101FD000577269746520746F20626C6F636B203573
:101FE0002C206661696C206572726F72436F646544
:101FF000203D202564202A2A2A0D0A005772697480
:102000006520746F20626C6F636B20352C204F4B02
:102010000D0A000054686520737472696E67206948
:10202000733A2025730D0A00577269746520746F26
:1020300020626C6F636B20362C206661696C202AED
:102040002A2A0D0A00000000577269746520626C2C
:102050006F636B20362C204F4B0D0A004461746176
:1020600020696E205B31303A31355D2069733A204A
:102070000000000025642C000A6842624A688262FF
:10208000D1E902231A43D1E904310B43C16A1A434F
:1020900021F0F7011143C16200207047006800F091
:1020A0000300704708444069704770B50DF1100C8B
:1020B00011439CE87000234319432943426831438C
:1020C00047F6FF639A430A434260002070BD032134
:1020D000016000207047D0F8800070470A68826075
:1020E000D1E901231A43D1E903310B43C1681A43F3
:1020F0006FF30B011143C160002070470968C0F8FD
:1021000080100020704710B585B004463720CDE917
:10211000001040200290002003904FF48060049053
:1021200069462046FFF7DAFF41F288323721204620
:1021300000F0E4F905B010BD10B504460A4885B0BA
:1021400001432920CDE90010402002900020039097
:102150004FF48060049069462046FFF7BFFF204699
:1021600000F084FA05B010BD0000108010B585B0F5
:1021700004461020CDE9001040200290002003907A
:102180004FF48060049069462046FFF7A7FF41F2B4
:1021900088321021204600F0B1F905B010BD10B50D
:1021A00085B004460620CDE90010402002900020B2
:1021B00003904FF48060049069462046FFF78EFF3D
:1021C00041F288320621204600F098F905B010BD92
:1021D00010B585B0044600212620CDE9001040202E
:1021E000CDE902010001049069462046FFF776FF21
:1021F0004FF218622621204600F080F905B010BD8C
:1022000030B585B000240546009401944FF48060F9
:102210000294CDE9034069462846FFF75FFF0B486B
:102220004FF4FA510068B0FBF1F041F288314843B5
:10223000401E03D24FF0004005B030BD696B090667
:10224000F6D5C520A8632046F6E700001C00002054
:1022500010B585B004464FF4D57000900820019069
:1022600040200290002003904FF480600490694663
:102270002046FFF733FF204600F05EFA05B010BDA0
:1022800010B585B004461220CDE900104020029020
:10229000002003904FF48060049069462046FFF7C9
:1022A0001DFF41F288321221204600F027F905B0C7
:1022B00010BD10B585B004461120CDE900104020B6
:1022C0000290002003904FF48060049069462046FD
:1022D000FFF704FF41F288321121204600F00EF989
:1022E00005B010BD10B585B004462120CDE9001021
:1022F00040200290002003904FF4806004906946D3
:102300002046FFF7EBFE41F288322121204600F003
:10231000F5F805B010BD10B585B004462020CDE914
:10232000001040200290002003904FF48060049041
:1023300069462046FFF7D2FE41F28832202120462E
:1023400000F0DCF805B010BD10B585B004460720DC
:10235000CDE9002040200290002003904FF48060DF
:10236000049069462046FFF7B9FE41F28832072102
:10237000204600F0C3F805B010BD10B585B0044686
:1023800000210220CDE90010C020CDE902014FF468
:102390008060049069462046FFF7A0FE204600F0CA
:1023A0003DF905B010BD10B585B004460920CDE952
:1023B0000010C0200290002003904FF48060049031
:1023C00069462046FFF78AFE204600F027F905B04F
:1023D00010BD10B585B0044600213320CDE90010B2
:1023E0004020CDE902010001049069462046FFF734
:1023F00075FE41F288323321204600F07FF805B0A7
:1024000010BD10B585B004460D20CDE90010402068
:102410000290002003904FF48060049069462046AB
:10242000FFF75CFE41F288320D21204600F066F88D
:1024300005B010BD30B585B00C460546002103201F
:10244000CDE900104020CDE9020100010490694669
:102450002846FFF743FE22460321284600F028F9CC
:1024600005B030BD10B585B0044600210C20CDE983
:1024700000104020CDE90201000104906946204689
:10248000FFF72CFE034A0C21204600F037F805B078
:1024900010BD000000E1F50510B585B00446192017
:1024A000CDE9001040200290002003904FF480609E
:1024B000049069462046FFF711FE41F28832192147
:1024C000204600F01BF805B010BD10B585B00446DD
:1024D0001820CDE9001040200290002003904FF416
:1024E0008060049069462046FFF7F8FD41F288328B
:1024F0001821204600F002F805B010BD454B10B57C
:102500001B684FF4FA54B3FBF4F353435B1E02D23F
:102510004FF0004010BD426B12F0450FF6D012058F
:10252000F4D4426B520703D504218163084610BDE1
:10253000426BD20702D00121816305E0C52282638C
:102540000269D2B28A4201D0012010BD0021FFF7FA
:10255000A9FD3149084201D1002010BD002802DA4E
:102560004FF0007010BD410001D5402010BD81002A
:1025700001D5802010BDC10002D54FF4807010BD80
:10258000010102D54FF4007010BD410102D54FF496
:10259000806010BDC10102D54FF4006010BD010282
:1025A00002D54FF4805010BD410202D54FF40050C7
:1025B00010BD810202D54FF4804010BDC10202D58A
:1025C0004FF4004010BD410302D54FF4003010BD60
:1025D000810302D54FF4802010BDC10302D54FF412
:1025E000002010BD010402D54FF4801010BD41043D
:1025F00002D54FF4001010BD810402D54FF48000C5
:1026000010BD000702D54FF4000010BD4FF480301C
:1026100010BD00001C00002008E0FFFD12494FF42F
:10262000FA520968B1FBF2F141F288325143491E76
:1026300002D24FF000407047426B12F0450FF6D0C7
:102640001205F4D4416B490703D504218163084680
:102650007047416BC90703D0012181630846704769
:10266000C5218163002070471C0000200F494FF4F2
:10267000FA520968B1FBF2F141F288325143491E26
:1026800002D24FF000407047426B12F0450FF6D077
:102690001205F4D4416B490703D504218163084630
:1026A0007047C52181630020704700001C00002096
:1026B00030B5204B4FF4FA541B68B3FBF4F341F2EE
:1026C000883463435B1E02D24FF0004030BD446B40
:1026D00014F0450FF6D02405F4D4436B5B0703D503
:1026E00004218163084630BD436BDB0702D0012122
:1026F000816303E00369DBB28B4201D0012030BD6E
:10270000C52181630021FFF7CDFC10F4604F04D098
:10271000410406D54FF4005030BD000C108000205D
:1027200030BD000402D54FF4805030BD4FF48030EE
:1027300030BD00001C00002014494FF4FA52096813
:10274000B1FBF2F141F288325143491E02D24FF0FF
:1027500000407047426B12F0450FF6D01205F4D4DA
:10276000416B490703D50421816308467047416BDB
:10277000C90703D00121816308467047416B4906B0
:1027800001D5402181630020704700001C0000201B
:1027900010B5064C01202070FEF704F818B9207817
:1027A00020F001002070207810BD000008000020FB
:1027B0002DE9F04788B00D460446FEF77DF9002666
:1027C000824600960196374608212068FFF7CEFC26
:1027D00000282CD1B4F8500001042068FFF793FCC6
:1027E000002824D1401E4FF00808CDE9020830200F
:1027F0004FF00209CDE904090120CDE9067002A9D4
:102800002068FFF739FC2068FFF7E3FD00280ED1B0
:102810006F462068416B11F02A0F0BD0416B0907FE
:1028200002D4416B89051AD5C0F83880082008B059
:10283000BDE8F087416B890205D5FFF74CFC47F8EE
:102840002600761C02E0416B8904E7D5FEF734F9D7
:10285000A0EB0A00401CDCD14FF00040E7E7416BE1
:10286000890703D5C0F838900220E0E7416B89065C
:1028700003D5202181630846D9E740F23A518163AC
:10288000019800BA2860009800BA68600020CEE77E
:1028900010B590B004460120ADF838002068FFF76D
:1028A000FDFB002854D0606C032842D02068FFF75D
:1028B00064FD00284AD100212068FFF7F3FB606720
:1028C00004212068FFF7EEFBA06708212068FFF7CE
:1028D000E9FBE0670C212068FFF7E4FBC4F8800007
:1028E000606C032825D00EA92068FFF7A3FD0028FF
:1028F0002CD1606C03281CD0BDF838002065010481
:102900002068FFF750FD002820D100212068FFF744
:10291000C9FB606604212068FFF7C4FBA06608219C
:102920002068FFF7BFFBE0660C212068FFF7BAFBC9
:10293000206704212068FFF7B5FB000DE06403A9C0
:102940002046FEF7D9FC30B14FF0805010B010BDDA
:102950004FF08060FAE7B4F85000002302042068CA
:10296000FFF7F2FC0028F1D104F1100007C88DE850
:10297000070094E80F00FFF798FB0020E6E700004F
:102980002DE9F84F0026044600963546B04600680B
:10299000FFF736FC002827D12068FFF759FC4FF0DD
:1029A000805B4FF001094FF6FF7748B1A6642068BD
:1029B000FFF726FC002817D1A06C012802D020E0E8
:1029C000C4F8489000212068FFF79DFB58B918E033
:1029D00000212068FFF797FB002805D151462068A9
:1029E000FFF7AAFB10B15846BDE8F88F0021206818
:1029F000FFF758FB05464FEAD0780098401C00903E
:102A000002E0DFF82CA00098B84202D2B8F1000F23
:102A1000DED00098B84202D34FF08070E4E768003F
:102A200002D5C4F8449000E066640020DCE70000B2
:102A3000000010C170B5064C054601202070FDF75E
:102A4000BDFE18B92846FFF7A3FE2070207870BDA0
:102A50000800002010B5124888B014460078C0075E
:102A600002D0032008B010BDC1B1012905D0022950
:102A700008D003290CD00420F4E76846FDF78CFE4B
:102A800006980AE06846FDF787FE0798208005E073
:102A90006846FDF781FE0798400A20600020E1E7C4
:102AA0000800002070B51D46164608460124A31EE6
:102AB0002A463146FDF7A8FE28B900BFFDF772FE91
:102AC0000028FBD10024204670BDFFF761BE000046
:102AD00070B51D46164608460124A31E2A463146F7
:102AE000FDF7A2FE28B900BFFDF75CFE0028FBD170
:102AF0000024204670BD7047FDF7E4BF30B593B0A9
:102B000030216846FDF73BFD14210CA8FDF737FD89
:102B10001D480025016841F080510160006800F007
:102B2000805011901948016841F4804101600068AB
:102B3000022400F4804011900120009000040190D4
:102B40008001CDE9064004200890A820CDE90904C1
:102B500007200B906846FEF72BF908B172B6FEE726
:102B60000CA90F2081E831004FF4A0500F904FF4D2
:102B70008050109005210CA8FEF730F8002801D0F5
:102B800072B6FEE713B030BD40380240007000401E
:102B90000248016841F470010160704788ED00E06F
:102BA00070B5044600680169E26821F440511143A0
:102BB00001612169A068E269084361691143084322
:102BC0002168CA6849F20C639A430243CA602068CC
:102BD0004169A26921F44071114341613149206882
:102BE000884202D03049884202D1FEF7A1F801E0C4
:102BF000FEF78EF8E2690023192164253226B2F52A
:102C0000004F626828D0A0FB0101930F9200FDF7EE
:102C100034FB0146B0FBF5F06FF01802504301EBB6
:102C2000800006EB0010B0FBF5F000F0F002B1FB05
:102C3000F5F002EB0012B1FBF5F06FF0180358430A
:102C400001EB800006EB0010B0FBF5F000F00F0088
:102C500021681044886070BDA0FB010192185B419F
:102C6000FDF70BFB0146B0FBF5F00201B1FBF5F0FF
:102C70006FF01803584301EB800006EBC000B0FB77
:102C8000F5F000F0F80002EB4002B1FBF5F058431C
:102C900001EB800006EBC000B0FBF5F000F0070090
:102CA000D6E700000010014000140140FEE70907CC
:102CB000090E002804DB00F1E02080F800147047C2
:102CC00000F00F0000F1E02080F8141D70477047FD
:102CD00010B504460020E070401E2063204601F03D
:102CE000CCFC08B1042010BD04F2322001F086FAB9
:102CF000A0F52A41553901D0032010BD94F83400C5
:102D0000E92805D0EB2814D194F83600902810D18A
:102D100004F16A0001F067FA0749B1EB002F06D011
:102D200004F1860001F05FFA0449884201D10020D5
:102D300010BD022010BD00000046415446415433EE
:102D400000E0401C02780AB18A42FAD1D0B2704742
:102D5000F0B50022144D134605EB021426685EB14F
:102D60000768BE4209D166688768BE4205D1A4687B
:102D70004669B44204D000E00123521C022AEBD37E
:102D8000022A01D069B904E04BB9022907D0122008
:102D9000F0BD05EB02108089B0F5807F01D00020E6
:102DA000F0BD1020F0BD00005805002030B5002116
:102DB000054B0C4603EB01121568854200D11460E7
:102DC000491C0229F6D330BD580500200268490A83
:102DD000C06A5289B1FBF2F1001D04C81AB19142D8
:102DE00003D3891AF8E70020704700680844704749
:102DF0008269891E921E8A4201D800207047C26AE9
:102E0000408901FB002070472DE9F05F82460C46A7
:102E100001F11A0001F0F2F978BB2078012700F0E7
:102E20003F00401E00EB8001DFF8589001EBC00529
:102E300000264FF6FF7B00BF19F80600204401F082
:102E4000DDF980466FB1402D17D200F00BFF074629
:102E50003AF815006D1C00F005FF87420DD147467A
:102E600001E0D84509D1761C0D2EE5D32078400627
:102E700006D52FB13AF8150010B10020BDE8F09F3B
:102E80000120FBE7284C00082DE9F04105680F0000
:102E9000804606D001F0D4F8022809D20120BDE80E
:102EA000F0812E6916B1A869B04207D8012605E065
:102EB000411CF4D0A9698142F1D83E463446A86944
:102EC000641CA04202D80224022E0AD321464046A6
:102ED00001F0B6F838B10128E1D0411CDFD0B4428E
:102EE000EDD10020DBE74FF0FF3632462146284681
:102EF00001F0DCFB30B957B122463946284601F0D3
:102F0000D5FB20B101280FD001242046C7E72C6152
:102F1000D5E90501891E884201D8401E68612879DB
:102F200040F001002871F0E73446EEE72DE9F84F54
:102F3000824600680E680024C76888462546705D92
:102F40006D1C20281AD32F2813D05C2811D0402CB8
:102F500039D2012100F06AFE5FEA000933D0B9F1ED
:102F6000800F12D201466DA0FFF7EAFE58BB0CE0BD
:102F70006D1C715D2F29FBD05C29F9D07219C8F83E
:102F80000020202805D204250FE027F81490641CA7
:102F9000D5E7002509E000BF07EB440030F8020C3C
:102FA000202801D02E2802D1641E002CF4D100204C
:102FB00027F814003CB10B2220210AF1240001F073
:102FC00055FB002603E00620BDE8F88F761C37F895
:102FD00016002028FAD02E28F8D01EB145F003059F
:102FE00000E0641E2CB107EB440030F8020C2E28E0
:102FF000F7D14FF000094FF0080BCDF8009000BF5B
:1030000037F8160006F101065FEA000824D0B8F18F
:10301000200F04D0B8F12E0F04D1A64202D045F003
:103020000305EDE70098584501D2A64219D1BBF13E
:103030000B0F0FD0A64201D045F003050CD84FF07E
:10304000080000904FEA896026464FF00B0B4FEACC
:103050001069D5E745F003059AF82400E52838D033
:103060003AE04046B8F1800F10D3002100F0DEFDB9
:103070005FEA000805D02C4901EB080010F8800C2D
:10308000804645F00205B8F1000F04D0014627A0A4
:10309000FFF756FE20B14FF05F0845F003050FE043
:1030A000A8F14100192802D849F0020908E0A8F166
:1030B0006100192804D8413049F001091FFA80F84D
:1030C000009A0AEB020181F824800098401C0090CD
:1030D00096E705218AF82410BBF1080F03D14FEAC7
:1030E00089604FEA1069C9F38100032803D06FEAB1
:1030F0000901890701D145F00205A90709D409F0A2
:103100000301012901D145F01005012801D145F045
:1031100008058AF82F50002056E70000222A3A3C82
:103120003E3F7C7F00000000A84B00082B2C3B3D5D
:103130005B5D0000401E022812D20A4901EB00111B
:103140008889B0F5807F05D008B1401E80B28881A3
:1031500010B103E00020FAE700200860002070476B
:1031600002207047580500202DE9F0470446002151
:10317000D0F8009000F0CCF900285BD1FF25471E65
:10318000A84627634846E16901F077FA060050D166
:10319000216A087850B1CA7AE52802F03F02A2718C
:1031A0003FD0130704D50F2A3BD105E0042640E0A9
:1031B0000F2A01D0E5B120E094F82F20520632D436
:1031C000420606D591F80D8000F0BF006269054601
:1031D0002263A84209D14A7B424506D1D9F80C00A6
:1031E000FFF712FE08B16D1E00E0FF25EDB21AE0F8
:1031F000084601F02AFB40451BD094F82F00C00779
:103200000FD1D4F8201004F124000B2211F8013B57
:1032100010F8015B5B1B521E02D0002BF6D000E0C1
:103220003BB1FF2527630021204600F005F806008A
:10323000A8D03046BDE8F0872DE9F047054647693C
:103240000468C0698946203710B1B7F5001F02D362
:103250000420BDE8F087F90560D1401CE861A96948
:103260004FF0000829B16089401E10EA572F05D0A1
:1032700054E02089B0EB571F1DD94FE0284600F0DD
:10328000DFFE064601281BD9701C33D0A069B0426E
:103290003ED8B9F1000F0ED02846A969FFF7F4FD1A
:1032A00006000BD0012E0BD0701C23D0204601F05D
:1032B0001DFBF8B906E0C5F81C80C9E70720C8E780
:1032C0000220C6E74FF40072002104F1340001F03F
:1032D000CDF94FF0000831462046FFF789FD4FF049
:1032E000010920630DE000BF84F80390204601F03F
:1032F000FDFA08B10120ACE7206B08F10108401C81
:10330000206361894145EFD8216BA1EB0800206360
:1033100031462046AE61FFF76BFDE861C7F3080058
:10332000204434306F612862002092E72DE9F04F8D
:103330000446D0F8009090F82F0089B010F0A00F4C
:1033400003D0062009B0BDE8F08F0025D9F80C00A5
:1033500000E06D1C30F815100029FAD104F12401A9
:103360000C226846039101F077F99DF80B00C00725
:1033700019D0402084F82F00012633466946D9F839
:103380000C20039800F01CFE2046FFF7EDFE10B95C
:10339000761C642EF1D3642E0FD00428D2D19DF870
:1033A0000B0084F82F009DF80B00800707D50D2037
:1033B0000C35B5FBF0F56D1C02E00720C2E70125D6
:1033C00000212046276800F0A3F888B90026384677
:1033D000E16901F052F958B9206A0078E5280AD06D
:1033E00048B1002601212046FFF726FF0028EED035
:1033F000042812D012E0761C2846AE42F2D1451EB7
:10340000059567D06169684201EB4011204600F0E4
:103410007FF85FEA000803D076E00720804673E07B
:10342000039801F012FA4FF6FF7B07904846E169D6
:1034300001F023F95FEA000866D1D9F80C00069084
:103440000598D4F82080C0B20490079988F80D1030
:103450000F2188F80B10002188F80C1008F11A00D1
:1034600001F0EFF90498DFF8A4A0401E00EB800102
:1034700001EBC006002701E05D4503D0069830F857
:103480001650761C1AF8071001EB0800294601F0C7
:10349000D8F905B95D467F1C0D2FEDD35D4505D0EC
:1034A000069830F8160008B1049803E0049840F03C
:1034B0004000049088F80000012189F803100021E1
:1034C0002046FFF7B9FE5FEA00081DD10598401EAF
:1034D0000590ABD14846E16901F0CFF85FEA0008FA
:1034E00012D120220021206A01F0C0F80B22206AAC
:1034F000039901F0B1F894F82F00216A00F0180048
:103500000873012089F8030040461BE7284C000897
:103510002DE9F04107680E460546B1F5001F36D289
:10352000F00634D16E61AC6824B93878032805D32D
:10353000BC6A1CB178894FEA402812E03889B0EBA8
:10354000561F24D9B86A12E0284600F079FD0446D7
:10355000401C1AD0022C1AD3B869A04217D9A6EB86
:10356000080646452146EFD23846FFF741FCC5E93B
:10357000064060B100EB5620E861C6F3080038440D
:10358000343028620020BDE8F0810120FBE70220F2
:10359000F9E7000070B5094C05460020615D00297F
:1035A0000AD104EB850160194968007A09688847E7
:1035B000002801D10121615570BD0000780500206F
:1035C00030B4054C231804EB80001B7A4068046972
:1035D0001846A44630BC60477805002030B4054D3D
:1035E0002C1805EB8000247A406885682046AC469C
:1035F00030BC604778050020044A111802EB8000B7
:10360000097A4068426808461047000078050020A3
:1036100030B4054D2C1805EB8000247A4068C5684D
:103620002046AC4630BC60477805002038B50446DB
:1036300000F0EDF900280CD16946204601F07FF931
:10364000002806D12069FFF775FD002801D100216F
:10365000216038BD2DE9F74181B090460298009075
:10366000684600F04EFD040003D50B2004B0BDE811
:10367000F0810D4E002756F824501DB12846FFF763
:1036800095FB2F700198002800D0077046F82400A1
:1036900002D0B8F1010F01D00020E7E7002201A914
:1036A00002A800F01FFBE1E7240000202DE9F7430A
:1036B000B4B005000BD002F03F063246694635A88B
:1036C00000F010FB04004FF0000804D0EEE00920E9
:1036D00037B0BDE8F08300980FA90190C16001A840
:1036E000359900F029FC04000ED19DF83300000646
:1036F00001D5062408E0700801D0012100E0002176
:1037000001A8FFF725FB044616F01C0F5DD04FF013
:103710000109C4B1042C10D10020674902E0401C0B
:10372000022804D201EB00121268002AF7D1022805
:1037300007D001A8FFF7FAFD044646F008065CB181
:10374000B4E01224B2E09DF80A0010F0110F47D146
:10375000700701D50824A9E0300747D500F0CFFC59
:103760000746099839460E3001F063F80998394642
:10377000163001F05EF809992020C8720999009866
:1037800000F01EFD074600220999009801F03DF85F
:10379000099800211C3001F04CF8009981F8039041
:1037A00017B3D1F830900022394601A800F0F3FF9A
:1037B00004007BD14946009800F05FFF04000098A8
:1037C000A7F1010707610DD070E0ECBB9DF80A007E
:1037D000C10601D5042469E0B10703D5C00701D0B3
:1037E000072463E0300701D546F040060098006BDF
:1037F00068620998A862700801D0012100E00021E8
:1038000001A800F09DFC2861B8B30999009800F068
:10381000D7FCA86009981C3000F0E5FCC5F82C80A6
:10382000E86000992960009905F130004FF40072BA
:10383000C988A9802E7585F81580C5F820800021DB
:103840008146C5F8188000E030E000F00FFFB006B8
:103850002ED5EE6866B3AE610098A968408947022C
:103860000FE0284600F0ECFB0146012800D80224B6
:10387000481C03D0F61B24B105E01BE00124F61B15
:1038800001E0BE42EDD8E96184B9F00510D000989E
:10389000FFF7AEFA70B100EB56222A6200980123BE
:1038A00049464078FFF79AFE10B10124C5F8008020
:1038B00020460DE70224F9E7580500202DE9FE4FC8
:1038C00088460021196099461546044602A901F070
:1038D00036F8002812D1607D00280FD1207DC00766
:1038E0000BD0E168A0690127081A4FF0020A04F121
:1038F000300B854200D9054684E00720BDE8FE8FE5
:10390000A169C80566D102984089401E10EA512677
:1039100011D129B1E06A28B12046FFF757FA05E036
:10392000A06803E02046E16900F08AFB02281BD36F
:10393000411C4AD0E061E1690298FFF759FA98B159
:1039400030440190680A009025D0029932184889C5
:10395000824201D9801B0090DDE90032487841465F
:10396000FFF73CFE88BB03E084F815A00220C5E702
:10397000207D00060CD5216A0198081A009988421A
:1039800006D208EB40204FF40072594600F064FE66
:10399000009846022CE0226A0198824218D0207DCD
:1039A00000060AD50298012359464078FFF730FEF9
:1039B00058B9207D00F07F002075029801235946F8
:1039C0004078019AFFF70AFE10B16775012095E76C
:1039D00001982062208BC0F30800C0F50076AE424B
:1039E00000D92E46011932464046303100F034FEEF
:1039F000A069B0443044A061D9F800008119AD1B22
:103A0000C9F80010002D7FF47BAF002076E7F8B5F1
:103A10000446694600F093FF00280ED1217D4A0636
:103A20000BD508060ED50098226A0123407804F1D0
:103A30003001FFF7EDFD08B10120F8BD207D00F059
:103A40007F00207500F05BFB0646616A009800F07D
:103A500014FE0028F1D1A56A2946E87A40F020003A
:103A6000E872A268206800F0D0FE05F11C00E16851
:103A700000F0DFFE314605F1160000F0DAFE00210D
:103A800005F1120000F0DDFE00980121C17000F088
:103A9000E9FE217D01F0BF012175F8BD2DE9FE4F42
:103AA00004460020884618609946154602A920461B
:103AB00000F045FF002806D1607D002803D1207D5D
:103AC000800702D40720BDE8FE8FA06901274219B4
:103AD0004FF0020A04F1300B824200D2C5439BE052
:103AE000A169C80575D102984089401E10EA512687
:103AF00018D129B1E06A38B12046FFF767F907E02D
:103B0000A06838B9002100E0E1692046FFF7BCF960
:103B100000287DD001282DD0411C54D0E061A1683F
:103B200001B9A060207D00060BD50298226A01230E
:103B300040785946FFF76CFDA0BB207D00F07F0068
:103B40002075E1690298FFF753F998B1304401906C
:103B5000680A009027D03218029841898A4201D918
:103B6000891B0091DDE9003240784146FFF750FDA6
:103B7000C0B903E084F815A00220A4E7216A0198E7
:103B8000081A009988420AD208EB40214FF40072CB
:103B9000584600F061FD207D00F07F002075009800
:103BA000460228E00FE0216A019881420FD0E168C7
:103BB000A06988420BD20298012359464078019AA5
:103BC000FFF70CFD18B1677501207CE701E0019853
:103BD0002062208BC0F30800C0F50076AE4200D909
:103BE0002E46204432464146303000F035FD207DDF
:103BF00040F080002075A069B0443044A061E168C5
:103C0000884200D80846E060D9F80000811900E039
:103C100005E0AD1BC9F80010002D7FF461AF207DD9
:103C200040F04000207500204DE70000802804D3BC
:103C30000B4A51B1FF2801D90020704702EB400028
:103C4000A0F58050B0F8000F704732F81130834271
:103C500003D0491C89B28029F7D38031C8B270479C
:103C6000524C000830B5B0F5805F01D21B4900E02E
:103C70001B4931F8022B002A15D0904213D331F89A
:103C8000024B230AE5B252FA84F4844221D9092B6B
:103C900009D2DFE803F005090E11131517191B00EF
:103CA000801A31F8100030BD811A01F00101401A6C
:103CB00000E0103880B230BD2038FBE73038F9E73B
:103CC0001A38F7E70830F5E75038F3E7A0F5E35086
:103CD000F0E7002BCDD101EB4501CAE7524D0008BA
:103CE000444F00082DE9FF41002790460E460F6023
:103CF00000F007FA050003D50B2004B0BDE8F08101
:103D00008A4850F825409CB13460207808F0FE06BF
:103D100020B16078FFF770FCC1070BD02770E8B2C4
:103D2000B8466070FFF736FCC10708D00320E4E70F
:103D30000C20E2E70EB1400704D40020DDE71EB1FD
:103D4000400701D50A20D8E7002631462046FEF775
:103D5000BFFF022822D100254FEA0D0704EB051012
:103D600090F8F61100F5F97019B1083000F03BFA3F
:103D700000E0002047F825006D1C042DEED300253F
:103D800057F8256036B131462046FEF7A1FF0228DC
:103D900001D203E003206D1C042DF1D3042809D0C7
:103DA00002286DD204F13F0000F028FAB0F5007F40
:103DB00066D101E00120A0E704F14A0000F01EFAFC
:103DC00018B904F1580000F00EFAE06194F844507C
:103DD000A570012D01D0022D52D1454394F8410028
:103DE0006081E8B3411E08424AD104F1450000F069
:103DF00005FA2081000743D104F1470000F0FEF9E5
:103E0000070004D104F1540000F0EDF9074604F175
:103E1000420000F0F3F9010032D02389481900EB89
:103E2000131297422CD3B81A6789B0FBF7F0B8B1D8
:103E300003274FF6F57C604500D8022740F6F57C55
:103E4000604500D80127801C3244E2623144A06101
:103E5000C4E90861032F15D013B12944A16200E021
:103E60000EE0022F1FD000F0010100EB400001EB3B
:103E7000500000BFE16900F2FF10B1EB502F14D2E7
:103E80000D203AE704F15E0000F0B8F90028F7D100
:103E900020890028F4D104F1600000F0A4F9A062A8
:103EA000A0698000E6E74000E4E74FF0FF30606182
:103EB000206180202071032F2CD104F1640000F0D8
:103EC0009DF9012826D1711C204600F0D6FB08BBC5
:103ED00084F8048004F2322000F090F9A0F52A4121
:103EE000553917D104F1340000F07DF910498842AA
:103EF00010D104F5067000F076F90E49884209D118
:103F000004F5077000F06FF9606104F5087000F0C7
:103F10006AF9206105492770091F0888401C08803C
:103F2000E0802046FEF742FF07E700002400002063
:103F3000525261417272416173B50446056801983D
:103F400001E0401C019001782F29FAD05C29F8D0BB
:103F50000021A16001980078202806D2802084F8F2
:103F60002F002046FFF7D4FA7CBD01A92046FEF7BA
:103F7000DDFF0028F8D12046FFF7F6F894F82F105F
:103F800028B10428F0D14907EED405207CBD4907AB
:103F9000FCD4A079C006F8D5A08AC0F30800411966
:103FA0002846343100F00CF9A060DEE703490A68C6
:103FB0005206FCD5C2B24A607047000000100140B2
:103FC0007CB516461C4605460B2200F045FB052C29
:103FD00011D91A4A0CE00021B61C2346044663F3AB
:103FE0005F044008E30300D55440491C1029F4D372
:103FF00030880028EFD107214FEA0D0204F00F00AE
:104000003030392800D9C01D5054491E2409F5D13B
:104010007E205054002000E0401C884202D22B5CDD
:10402000202BF9D1082902D2535C491C00E020233F
:104030002B54401C0828F5D37CBD00002110010042
:104040002DE9F04104680D4602290BD3A069A8426E
:1040500008D920784FF0FF36012807D002282BD04E
:10406000032839D001263046BDE8F081606A05EBAF
:10407000550700EB5721204600F0FFFA0028F2D147
:10408000C7F3080020447F1C90F83480606A00EB7E
:104090005721204600F0F1FA0028E4D1C7F30800C8
:1040A000204490F8341048EA0120E90701D00609BD
:1040B000D9E7C0F30B06D6E7606A00EB152120466E
:1040C00000F0DBFA0028CED1E8B204EB4000343037
:1040D00000F094F80646C6E7606A00EBD51120466A
:1040E00000F0CBFA0028BED140F2FF1000EA8500B4
:1040F0002044343000F077F820F07046B3E7002019
:10410000704710B504464FF0FF302268002A13D0E4
:10411000114600E0491C0B78202B0ED33A2BF9D125
:1041200012F8013B303B0A2B06D28A4204D1002B05
:1041300002D1491C1846216010BD002010BD0000AE
:10414000F0B502461D4BD2F80050002003EB0014DE
:104150002668AE4207D166689768BE4203D1A4685C
:104160005669B44202D0401C0228EFD3022814D171
:10417000002002E0401C022804D203EB0014246853
:10418000002CF7D102280ED003EB001425609568AF
:1041900065605269A2600022A281002903EB001130
:1041A000898902D019B10020F0BD491C01E04FF40B
:1041B000807103EB0012401C9181F0BD5805002076
:1041C00070B506460D4601F11A0000F017F80446D6
:1041D0003078032805D105F1140000F00FF844EA07
:1041E0000044204670BDC178827842EA01214278BD
:1041F000007842EA012140EA0120704741780078C6
:1042000040EA012070470000C4B0FCF763FCFEF7F1
:1042100075FCFDF75DFCFDF79DFCFDF74BFCFDF724
:10422000A9FC7848FDF75CF94FF400617548FCF78C
:1042300075FF20B174A0FCF797F872B6FEE7242250
:104240007BA139A8FCF769F982A30DF1700C0FCBA3
:104250008CE80F0083A0FCF787F801228E498F4875
:10426000FFF7F8F98E4C011E207001D08DA026E0DA
:1042700092A0FCF779F80A221CA99648FFF716FAD3
:1042800008B195A01FE099A0FCF76EF81BAB2122A6
:1042900039A99048FFF702FC207010B101469AA09E
:1042A0000DE09FA0FCF760F839A9A4A0FCF75CF82A
:1042B0008848FFF7BBF9207020B10146A4A0FCF7A5
:1042C00053F802E0A8A0FCF74FF801221CA981488E
:1042D000FFF7ECF92070011E03D0A9A0FCF744F809
:1042E00002E082A0FCF740F842AB642220A97948A2
:1042F000FFF7E4FA2070011E01D0A8A004E0ADA0F1
:10430000FCF732F820A9B0A0FCF72EF87148FFF7AF
:104310008DF92070011E03D08DA0FCF725F802E076
:1043200091A0FCF721F81B994298884202D1ABA0DA
:10433000FCF71AF80A22B0A16648FFF7B7F900287F
:104340002FD1B0A0FCF710F8B7A102A8FCF718F81D
:1043500002A8FCF7C3F802461BAB02A95D48FFF7B1
:104360009DFB002404F1280104F11E00CDE90001A9
:1043700004F11403621CB2A102A8FCF701F802A820
:10438000FCF7ACF802461BAB02A95248FFF786FBCC
:104390005048FFF73CFB641C0A2CE3DB4D48FFF759
:1043A00045F9AB4CAB4D01212846FCF77FFB0128BA
:1043B000F9D13220FCF770FA01212846FCF776FB90
:1043C0000128F0D1207830B1012807D0022808D088
:1043D00003280BD108E0FDF757FC07E0FDF7EAFBE7
:1043E00004E0FDF799FD01E0FDF712FD2078401C87
:1043F00000F00300207001212846FCF757FB00283D
:10440000F9D1D0E728000020E58887E68DA2534443
:10441000494F5F342D626974E5A4B1E8B4A5EFBCDF
:104420008CE5A484E79086E99499E8AFAF5C6E00D0
:10443000546869732069732053544D333220776F69
:10444000726B696E67207769746820466174467381
:104450000000000053544D3332637562652E74784A
:10446000740000002A2A2A2A2A2A2A2A2A20535497
:104470004D3332437562654D582046617446732052
:104480004578616D706C65202A2A2A2A2A2A2A2AF0
:104490002A0D0A0D0A0000000A000020F400002086
:1044A00009000020665F6D6F756E74206572726F13
:1044B00072203A202564200D0A000000665F6D6FAF
:1044C000756E7420737563657373212121200D0A45
:1044D0000000000028030020665F6F70656E206694
:1044E000696C65206572726F720D0A00665F6F708D
:1044F000656E2066696C6520737563657373212131
:1045000021200D0A00000000665F77726974652043
:1045100066696C65206572726F722025640D0A00F1
:10452000665F77726974652066696C652073756370
:10453000657373212121200D0A000000665F7772E8
:104540006974652044617461203A2025730D0A0066
:10455000665F636C6F7365206572726F72212121D3
:104560002025640D0A000000665F636C6F73652090
:10457000737563657373212121200D0A000000000B
:10458000665F6F70656E2066696C65206572726F1C
:1045900072203A2025640D0A00000000665F7265F3
:1045A0006164206572726F722121212025640D0AD9
:1045B00000000000665F7265616420737563657357
:1045C00073212121200D0A00665F72656164204419
:1045D000617461203A2025730D0A0000466174461B
:1045E0007320697320776F726B696E672077656CD3
:1045F0006C2121210D0A000053656E736F722E63CA
:104600007376000053656E736F722E637376207736
:104610006173206F70656E65642F63726561746588
:10462000642121210D0A00004974656D2C54656DCB
:10463000702C48756D692C4C696768740D0A000010
:1046400025642C25642C25642C25640D0A000000AB
:104650000000002000000240002A05D011F8013BB4
:1046600000F8013B521EF9D1704700005FFA81F15A
:1046700000F8011B521EFBD1704770B50446006B59
:104680000D460026A8420FD0204600F02FF9060064
:104690000AD1607801232A4604F13401FEF79EFF17
:1046A00008B1751E01262563304670BD2DE9F0471F
:1046B000022617460D460446022969D3A069A8427E
:1046C00066D920784FF00109012804D0022836D09D
:1046D00003285DD143E0616A05EB550801EB5821E1
:1046E0002046FFF7CAFF060052D1C8F30800204455
:1046F000343008F10108E90704D00178FAB262F316
:104700001F1100E03946017084F80390616A204669
:1047100001EB5821FFF7B1FF060039D1C8F30800BB
:1047200020443430E90702D0C7F3071105E00178CF
:10473000C7F3032201F0F0011143017026E0606A23
:1047400000EB15212046FFF798FF060020D1E8B2C4
:1047500004EB4000B9B2343000F073F816E0606A40
:1047600000EBD5112046FFF788FF060010D140F27C
:10477000FF1000EA8500204434300546FFF733FD82
:1047800067F31B000146284600F053F884F80390B5
:104790003046BDE8F0872DE9F041056813460E4626
:1047A000074602292DD3A869B0422AD93BB14FF060
:1047B000FF3219462846FFF779FF00281FD13146FE
:1047C0003846FFF73DFC040018D0012C19D0601CBE
:1047D00019D0002231462846FFF768FF00280ED185
:1047E000D5E90510821E914205D2491C69612979DB
:1047F00041F0010129712646B042E0D80020BDE811
:10480000F0810220FBE70120F9E770B50C4606466F
:10481000154691B204F11A0000F013F8307803281D
:1048200006D1290C04F11400BDE8704000F009B86D
:1048300070BD0170090A4170090A8170090AC170CE
:1048400070470170090A41707047014600200B2231
:10485000430803EBC01011F8013B521E1844C0B2CC
:10486000F6D1704770B5044600F040F8050036D127
:10487000207803282CD12079012829D1420204F183
:10488000340000210646FFF7F1FE4AF6552104F2F6
:104890003220FFF7D6FF13493046FFF7CAFF12490F
:1048A00004F50670FFF7C5FF04F507706169FFF7AF
:1048B000C0FF04F508702169FFF7BBFF226A0123DE
:1048C000521C226360783146FEF7A2FE0020207160
:1048D000002260781146FEF773FE00B101252846DC
:1048E00070BD000052526141727241612DE9F04188
:1048F0000446C0780027F8B1256B04F134016078D4
:1049000001232A468846FEF783FE08B1012713E0FB
:104910000020E070606AE169281A88420CD2A6780B
:1049200008E0E0690123054460782A464146FEF725
:104930006FFE761E022EF4D23846BDE8F08170B5C7
:104940000E4604004FF009050CD0206850B10178E4
:1049500041B1A188C288914204D14078FEF74CFE53
:10496000C00703D000203060284670BD00252068B5
:10497000F9E74FF04070E1EE100A704748656C6C43
:104980006F2C2077656C636F6D6520746F205550B8
:1049900043000000000000000000000000000000D4
:1049A0000000000000000000000000000000000007
:1049B00000000000000000000000000000000000F7
:1049C00000000000000000000000000000000000E7
:1049D00000000000000000000000000000000000D7
:1049E00000000000000000000000000000000000C7
:1049F00000000000000000000000000000000000B7
:104A000000000000000000000000000000000000A6
:104A10000000000000000000000000000000000096
:104A20000000000000000000000000000000000086
:104A30000000000000000000000000000000000076
:104A40000000000000000000000000000000000066
:104A50000000000000000000000000000000000056
:104A60000000000000000000000000000000000046
:104A70000000000000000000000000000000000036
:104A80000000000000000000000000000000000026
:104A90000000000000000000000000000000000016
:104AA0000000000000000000000000000000000006
:104AB00000000000000000000000000000000000F6
:104AC00000000000000000000000000000000000E6
:104AD00000000000000000000000000000000000D6
:104AE00000000000000000000000000000000000C6
:104AF00000000000000000000000000000000000B6
:104B000000000000000000000000000000000000A5
:104B10000000000000000000000000000000000095
:104B20000000000000000000000000000000000085
:104B30000000000000000000000000000000000075
:104B40000000000000000000000000000000000065
:104B50000000000000000000000000000000000055
:104B60000000000000000000000000000000000045
:104B7000000000000000000000000000352A0008CE
:104B8000CB2A0008A52A0008D12A0008552A0008C7
:104B900000000000000000000102030406070809ED
:104BA0000000000001020304809A45418E418F807D
:104BB0004545454949498E8F9092924F994F555599
:104BC00059999A9B9C9D9E9F41494F55A5A5A6A783
:104BD000A8A9AAABACADAEAFB0B1B2B3B4B5B6B7DD
:104BE000B8B9BABBBCBDBEBFC0C1C2C3C4C5C6C7CD
:104BF000C8C9CACBCCCDCECFD0D1D2D3D4D5D6D7BD
:104C0000D8D9DADBDCDDDEDFE0E1E2E3E4E5E6E7AC
:104C1000E8E9EAEBECEDEEEFF0F1F2F3F4F5F6F79C
:104C2000F8F9FAFBFCFDFEFF01030507090E10125F
:104C30001416181C1E0001000400100040000001A2
:104C40000002000001000200040008001000200023
:104C50000000C700FC00E900E200E400E000E5001D
:104C6000E700EA00EB00E800EF00EE00EC00C40013
:104C7000C500C900E600C600F400F600F200FB0023
:104C8000F900FF00D600DC00A200A300A500A720C9
:104C90009201E100ED00F300FA00F100D100AA005A
:104CA000BA00BF001023AC00BD00BC00A100AB00E7
:104CB000BB00912592259325022524256125622597
:104CC000562555256325512557255D255C255B25F2
:104CD0001025142534252C251C2500253C255E2572
:104CE0005F255A25542569256625602550256C25A4
:104CF000672568256425652559255825522553259E
:104D00006B256A2518250C25882584258C2590255A
:104D10008025B103DF009303C003A303C303B500E1
:104D2000C403A6039803A903B4031E22C603B50354
:104D300029226122B1006522642220232123F70069
:104D40004822B0001922B7001A227F20B200A02505
:104D5000A00061001A03E0001703F8000703FF003A
:104D60000100780100013001320106013901100112
:104D70004A012E017901060180014D0043028101A3
:104D800082018201840184018601870187018901F2
:104D90008A018B018B018D018E018F0190019101A0
:104DA000910193019401F6019601970198019801F0
:104DB0003D029B019C019D0120029F01A001A001D9
:104DC000A201A201A401A401A601A701A701A901B2
:104DD000AA01AB01AC01AC01AE01AF01AF01B10161
:104DE000B201B301B301B501B501B701B801B80112
:104DF000BA01BB01BC01BC01BE01F701C001C10188
:104E0000C201C301C401C501C401C701C801C70172
:104E1000CA01CB01CA01CD011001DD0101008E01E3
:104E2000DE011201F3010300F101F401F401F801C4
:104E30002801220212013A020900652C3B023B02C2
:104E40003D02662C3F0240024102410246020A0135
:104E50005302400081018601550289018A015802EE
:104E60008F015A0290015C025D025E025F029301B3
:104E700061026202940164026502660267029701A0
:104E800096016A02622C6C026D026E029C01700235
:104E900071029D01730274029F017602770278020B
:104EA00079027A027B027C02642C7E027F02A601D8
:104EB00081028202A9018402850286028702AE0174
:104EC0004402B101B20145028D028E028F029002AE
:104ED0009102B7017B030300FD03FE03FF03AC0354
:104EE00004008603880389038A03B1031103C20304
:104EF0000200A303A303C4030803CC0303008C0331
:104F00008E038F03D8031801F2030A00F903F30399
:104F1000F403F503F603F703F703F903FA03FA03BF
:104F20003004200350041007600422018A04360173
:104F3000C1040E01CF040100C004D0044401610586
:104F4000260400007D1D0100632C001E9601A01E9A
:104F50005A01001F0806101F0606201F0806301FF2
:104F60000806401F0606511F0700591F521F5B1FEE
:104F7000541F5D1F561F5F1F601F0806701F0E0025
:104F8000BA1FBB1FC81FC91FCA1FCB1FDA1FDB1FD9
:104F9000F81FF91FEA1FEB1FFA1FFB1F801F0806EF
:104FA000901F0806A01F0806B01F0400B81FB91FF5
:104FB000B21FBC1FCC1F0100C31FD01F0206E01F81
:104FC0000206E51F0100EC1FF21F0100FC1F4E212D
:104FD0000100322170211002842101008321D0249C
:104FE0001A05302C2F04602C0201672C0601752C49
:104FF0000201802C6401002D260841FF1A030000E5
:10500000205000080000002028000000C401000813
:105010004850000828000020C0170000E0010008E8
:10502000000000000000000001000000000000007F
:105030000100000010000000000000000024F40047
:08504000000000000000000068
:040000050800018965
:00000001FF
